{
  "contractName": "Main",
  "abi": [
    {
      "inputs": [
        {
          "internalType": "contract Token",
          "name": "_token",
          "type": "address"
        }
      ],
      "stateMutability": "nonpayable",
      "type": "constructor"
    },
    {
      "inputs": [],
      "name": "contrato",
      "outputs": [
        {
          "internalType": "address",
          "name": "",
          "type": "address"
        }
      ],
      "stateMutability": "view",
      "type": "function"
    },
    {
      "inputs": [],
      "name": "owner",
      "outputs": [
        {
          "internalType": "address payable",
          "name": "",
          "type": "address"
        }
      ],
      "stateMutability": "view",
      "type": "function"
    },
    {
      "inputs": [
        {
          "internalType": "uint256",
          "name": "amount",
          "type": "uint256"
        }
      ],
      "name": "addSupply",
      "outputs": [],
      "stateMutability": "nonpayable",
      "type": "function"
    },
    {
      "inputs": [],
      "name": "balance_total",
      "outputs": [
        {
          "internalType": "uint256",
          "name": "",
          "type": "uint256"
        }
      ],
      "stateMutability": "view",
      "type": "function"
    },
    {
      "inputs": [],
      "name": "DropInicial",
      "outputs": [],
      "stateMutability": "nonpayable",
      "type": "function"
    },
    {
      "inputs": [],
      "name": "balance_direccion",
      "outputs": [
        {
          "internalType": "uint256",
          "name": "",
          "type": "uint256"
        }
      ],
      "stateMutability": "view",
      "type": "function"
    },
    {
      "inputs": [],
      "name": "balancecontra",
      "outputs": [
        {
          "internalType": "uint256",
          "name": "",
          "type": "uint256"
        }
      ],
      "stateMutability": "view",
      "type": "function"
    }
  ],
  "bytecode": "0x608060405234801561001057600080fd5b50604051610a0d380380610a0d8339818101604052810190610032919061016f565b806000806101000a81548173ffffffffffffffffffffffffffffffffffffffff021916908373ffffffffffffffffffffffffffffffffffffffff16021790555033600160006101000a81548173ffffffffffffffffffffffffffffffffffffffff021916908373ffffffffffffffffffffffffffffffffffffffff16021790555030600260006101000a81548173ffffffffffffffffffffffffffffffffffffffff021916908373ffffffffffffffffffffffffffffffffffffffff1602179055505061019c565b600080fd5b600073ffffffffffffffffffffffffffffffffffffffff82169050919050565b600061012a826100ff565b9050919050565b600061013c8261011f565b9050919050565b61014c81610131565b811461015757600080fd5b50565b60008151905061016981610143565b92915050565b600060208284031215610185576101846100fa565b5b60006101938482850161015a565b91505092915050565b610862806101ab6000396000f3fe608060405234801561001057600080fd5b506004361061007d5760003560e01c8063531e92361161005b578063531e9236146100c65780638da5cb5b146100e4578063e1a01e6714610102578063e1f491dc146101205761007d565b806325c70b521461008257806340753a761461008c57806342eadf3b146100a8575b600080fd5b61008a61013e565b005b6100a660048036038101906100a19190610585565b6101e1565b005b6100b0610301565b6040516100bd91906105c1565b60405180910390f35b6100ce6103c5565b6040516100db91906105c1565b60405180910390f35b6100ec61045c565b6040516100f9919061061d565b60405180910390f35b61010a610482565b6040516101179190610659565b60405180910390f35b6101286104a8565b60405161013591906105c1565b60405180910390f35b60008054906101000a900473ffffffffffffffffffffffffffffffffffffffff1673ffffffffffffffffffffffffffffffffffffffff1663a9059cbb3361c3506040518363ffffffff1660e01b815260040161019b9291906106b9565b6020604051808303816000875af11580156101ba573d6000803e3d6000fd5b505050506040513d601f19601f820116820180604052508101906101de919061071a565b50565b33600160009054906101000a900473ffffffffffffffffffffffffffffffffffffffff1673ffffffffffffffffffffffffffffffffffffffff168173ffffffffffffffffffffffffffffffffffffffff1614610272576040517f08c379a0000000000000000000000000000000000000000000000000000000008152600401610269906107ca565b60405180910390fd5b60008054906101000a900473ffffffffffffffffffffffffffffffffffffffff1673ffffffffffffffffffffffffffffffffffffffff16635406d0e4836040518263ffffffff1660e01b81526004016102cb91906105c1565b600060405180830381600087803b1580156102e557600080fd5b505af11580156102f9573d6000803e3d6000fd5b505050505050565b60008060009054906101000a900473ffffffffffffffffffffffffffffffffffffffff1673ffffffffffffffffffffffffffffffffffffffff166370a08231600260009054906101000a900473ffffffffffffffffffffffffffffffffffffffff166040518263ffffffff1660e01b815260040161037f9190610659565b602060405180830381865afa15801561039c573d6000803e3d6000fd5b505050506040513d601f19601f820116820180604052508101906103c091906107ff565b905090565b60008060009054906101000a900473ffffffffffffffffffffffffffffffffffffffff1673ffffffffffffffffffffffffffffffffffffffff166318160ddd6040518163ffffffff1660e01b8152600401602060405180830381865afa158015610433573d6000803e3d6000fd5b505050506040513d601f19601f8201168201806040525081019061045791906107ff565b905090565b600160009054906101000a900473ffffffffffffffffffffffffffffffffffffffff1681565b600260009054906101000a900473ffffffffffffffffffffffffffffffffffffffff1681565b60008060009054906101000a900473ffffffffffffffffffffffffffffffffffffffff1673ffffffffffffffffffffffffffffffffffffffff166370a08231336040518263ffffffff1660e01b81526004016105049190610659565b602060405180830381865afa158015610521573d6000803e3d6000fd5b505050506040513d601f19601f8201168201806040525081019061054591906107ff565b905090565b600080fd5b6000819050919050565b6105628161054f565b811461056d57600080fd5b50565b60008135905061057f81610559565b92915050565b60006020828403121561059b5761059a61054a565b5b60006105a984828501610570565b91505092915050565b6105bb8161054f565b82525050565b60006020820190506105d660008301846105b2565b92915050565b600073ffffffffffffffffffffffffffffffffffffffff82169050919050565b6000610607826105dc565b9050919050565b610617816105fc565b82525050565b6000602082019050610632600083018461060e565b92915050565b6000610643826105dc565b9050919050565b61065381610638565b82525050565b600060208201905061066e600083018461064a565b92915050565b6000819050919050565b6000819050919050565b60006106a361069e61069984610674565b61067e565b61054f565b9050919050565b6106b381610688565b82525050565b60006040820190506106ce600083018561064a565b6106db60208301846106aa565b9392505050565b60008115159050919050565b6106f7816106e2565b811461070257600080fd5b50565b600081519050610714816106ee565b92915050565b6000602082840312156107305761072f61054a565b5b600061073e84828501610705565b91505092915050565b600082825260208201905092915050565b7f4e6f207469656e6573207065726d69736f73207061726120656a65637574617260008201527f20657374612066756e63696f6e2e000000000000000000000000000000000000602082015250565b60006107b4602e83610747565b91506107bf82610758565b604082019050919050565b600060208201905081810360008301526107e3816107a7565b9050919050565b6000815190506107f981610559565b92915050565b6000602082840312156108155761081461054a565b5b6000610823848285016107ea565b9150509291505056fea26469706673582212206343b9f2c9e945790ce8d0cddcb6a2a5209ab37f5c52b725067754982907c91e64736f6c634300080c0033",
  "immutableReferences": {},
  "source": "// SPDX-License-Identifier: MIT\r\npragma solidity ^0.8.9;\r\n\r\nimport \"./ERC20.sol\";\r\n\r\n\r\n\r\ncontract Main {\r\n    // Instancia del contrato token \r\n    Token private token;\r\n    \r\n    // Owner del contrato \r\n    address payable public owner;\r\n    \r\n    // Direccion del Smart Contract \r\n    address public contrato;\r\n    \r\n\tconstructor(Token _token) {\r\n         token = _token;\r\n         owner = payable(msg.sender);\r\n         contrato = address(this);\r\n\r\n    }\r\n\tfunction addSupply(uint amount) public Unicamente(msg.sender){\r\n\t\ttoken.addSupplyToken(amount);\r\n\t}\r\n\t   // Modificador para hacer funciones solamente accesibles por el owner del contrato\r\n    modifier Unicamente(address _direccion) {\r\n        require (_direccion == owner, \"No tienes permisos para ejecutar esta funcion.\");\r\n        _;\r\n    }\r\n    function balance_total() public view returns (uint) {\r\n        return token.totalSupply();\r\n    }\r\n\tfunction DropInicial() public  {\r\n    \r\n\t   token.transfer(msg.sender, 50000);\r\n\r\n\t}\r\n    function balance_direccion() public view returns (uint){\r\n        return token.balanceOf(msg.sender);\r\n    }\r\n  \r\n    function balancecontra() public view returns (uint){\r\n        return token.balanceOf(contrato);\r\n    }\r\n\r\n}",
  "sourcePath": "C:\\Users\\diosy\\OneDrive\\Desktop\\truffle\\marketV2\\Plantilla DAPP\\src\\contracts\\token.sol",
  "compiler": {
    "name": "solc",
    "version": "0.8.12+commit.f00d7308.Emscripten.clang"
  },
  "schemaVersion": "3.4.2",
  "updatedAt": "2022-03-13T16:53:24.128Z",
  "devdoc": {
    "kind": "dev",
    "methods": {},
    "version": 1
  },
  "userdoc": {
    "kind": "user",
    "methods": {},
    "version": 1
  }
}