{
  "contractName": "market",
  "abi": [
    {
      "inputs": [
        {
          "internalType": "contract Token",
          "name": "_token",
          "type": "address"
        }
      ],
      "stateMutability": "nonpayable",
      "type": "constructor"
    },
    {
      "anonymous": false,
      "inputs": [
        {
          "indexed": true,
          "internalType": "address",
          "name": "owner",
          "type": "address"
        },
        {
          "indexed": true,
          "internalType": "address",
          "name": "approved",
          "type": "address"
        },
        {
          "indexed": true,
          "internalType": "uint256",
          "name": "tokenId",
          "type": "uint256"
        }
      ],
      "name": "Approval",
      "type": "event"
    },
    {
      "anonymous": false,
      "inputs": [
        {
          "indexed": true,
          "internalType": "address",
          "name": "owner",
          "type": "address"
        },
        {
          "indexed": true,
          "internalType": "address",
          "name": "operator",
          "type": "address"
        },
        {
          "indexed": false,
          "internalType": "bool",
          "name": "approved",
          "type": "bool"
        }
      ],
      "name": "ApprovalForAll",
      "type": "event"
    },
    {
      "anonymous": false,
      "inputs": [
        {
          "indexed": true,
          "internalType": "uint256",
          "name": "tokenId",
          "type": "uint256"
        },
        {
          "indexed": false,
          "internalType": "address",
          "name": "seller",
          "type": "address"
        },
        {
          "indexed": false,
          "internalType": "address",
          "name": "owner",
          "type": "address"
        },
        {
          "indexed": false,
          "internalType": "uint256",
          "name": "price",
          "type": "uint256"
        },
        {
          "indexed": false,
          "internalType": "bool",
          "name": "sold",
          "type": "bool"
        }
      ],
      "name": "MarketItemCreated",
      "type": "event"
    },
    {
      "anonymous": false,
      "inputs": [
        {
          "indexed": true,
          "internalType": "uint256",
          "name": "tokenId",
          "type": "uint256"
        },
        {
          "indexed": false,
          "internalType": "address",
          "name": "seller",
          "type": "address"
        },
        {
          "indexed": false,
          "internalType": "address",
          "name": "owner",
          "type": "address"
        },
        {
          "indexed": false,
          "internalType": "uint256",
          "name": "price",
          "type": "uint256"
        }
      ],
      "name": "MarketItemSold",
      "type": "event"
    },
    {
      "anonymous": false,
      "inputs": [
        {
          "indexed": true,
          "internalType": "address",
          "name": "from",
          "type": "address"
        },
        {
          "indexed": true,
          "internalType": "address",
          "name": "to",
          "type": "address"
        },
        {
          "indexed": true,
          "internalType": "uint256",
          "name": "tokenId",
          "type": "uint256"
        }
      ],
      "name": "Transfer",
      "type": "event"
    },
    {
      "inputs": [
        {
          "internalType": "address",
          "name": "to",
          "type": "address"
        },
        {
          "internalType": "uint256",
          "name": "tokenId",
          "type": "uint256"
        }
      ],
      "name": "approve",
      "outputs": [],
      "stateMutability": "nonpayable",
      "type": "function"
    },
    {
      "inputs": [
        {
          "internalType": "address",
          "name": "owner",
          "type": "address"
        }
      ],
      "name": "balanceOf",
      "outputs": [
        {
          "internalType": "uint256",
          "name": "",
          "type": "uint256"
        }
      ],
      "stateMutability": "view",
      "type": "function",
      "constant": true
    },
    {
      "inputs": [
        {
          "internalType": "uint256",
          "name": "tokenId",
          "type": "uint256"
        }
      ],
      "name": "getApproved",
      "outputs": [
        {
          "internalType": "address",
          "name": "",
          "type": "address"
        }
      ],
      "stateMutability": "view",
      "type": "function",
      "constant": true
    },
    {
      "inputs": [
        {
          "internalType": "address",
          "name": "owner",
          "type": "address"
        },
        {
          "internalType": "address",
          "name": "operator",
          "type": "address"
        }
      ],
      "name": "isApprovedForAll",
      "outputs": [
        {
          "internalType": "bool",
          "name": "",
          "type": "bool"
        }
      ],
      "stateMutability": "view",
      "type": "function",
      "constant": true
    },
    {
      "inputs": [],
      "name": "name",
      "outputs": [
        {
          "internalType": "string",
          "name": "",
          "type": "string"
        }
      ],
      "stateMutability": "view",
      "type": "function",
      "constant": true
    },
    {
      "inputs": [
        {
          "internalType": "uint256",
          "name": "tokenId",
          "type": "uint256"
        }
      ],
      "name": "ownerOf",
      "outputs": [
        {
          "internalType": "address",
          "name": "",
          "type": "address"
        }
      ],
      "stateMutability": "view",
      "type": "function",
      "constant": true
    },
    {
      "inputs": [
        {
          "internalType": "address",
          "name": "from",
          "type": "address"
        },
        {
          "internalType": "address",
          "name": "to",
          "type": "address"
        },
        {
          "internalType": "uint256",
          "name": "tokenId",
          "type": "uint256"
        }
      ],
      "name": "safeTransferFrom",
      "outputs": [],
      "stateMutability": "nonpayable",
      "type": "function"
    },
    {
      "inputs": [
        {
          "internalType": "address",
          "name": "from",
          "type": "address"
        },
        {
          "internalType": "address",
          "name": "to",
          "type": "address"
        },
        {
          "internalType": "uint256",
          "name": "tokenId",
          "type": "uint256"
        },
        {
          "internalType": "bytes",
          "name": "_data",
          "type": "bytes"
        }
      ],
      "name": "safeTransferFrom",
      "outputs": [],
      "stateMutability": "nonpayable",
      "type": "function"
    },
    {
      "inputs": [
        {
          "internalType": "address",
          "name": "operator",
          "type": "address"
        },
        {
          "internalType": "bool",
          "name": "approved",
          "type": "bool"
        }
      ],
      "name": "setApprovalForAll",
      "outputs": [],
      "stateMutability": "nonpayable",
      "type": "function"
    },
    {
      "inputs": [
        {
          "internalType": "bytes4",
          "name": "interfaceId",
          "type": "bytes4"
        }
      ],
      "name": "supportsInterface",
      "outputs": [
        {
          "internalType": "bool",
          "name": "",
          "type": "bool"
        }
      ],
      "stateMutability": "view",
      "type": "function",
      "constant": true
    },
    {
      "inputs": [],
      "name": "symbol",
      "outputs": [
        {
          "internalType": "string",
          "name": "",
          "type": "string"
        }
      ],
      "stateMutability": "view",
      "type": "function",
      "constant": true
    },
    {
      "inputs": [
        {
          "internalType": "uint256",
          "name": "tokenId",
          "type": "uint256"
        }
      ],
      "name": "tokenURI",
      "outputs": [
        {
          "internalType": "string",
          "name": "",
          "type": "string"
        }
      ],
      "stateMutability": "view",
      "type": "function",
      "constant": true
    },
    {
      "inputs": [
        {
          "internalType": "address",
          "name": "from",
          "type": "address"
        },
        {
          "internalType": "address",
          "name": "to",
          "type": "address"
        },
        {
          "internalType": "uint256",
          "name": "tokenId",
          "type": "uint256"
        }
      ],
      "name": "transferFrom",
      "outputs": [],
      "stateMutability": "nonpayable",
      "type": "function"
    },
    {
      "inputs": [],
      "name": "balanceContrato",
      "outputs": [
        {
          "internalType": "uint256",
          "name": "",
          "type": "uint256"
        }
      ],
      "stateMutability": "view",
      "type": "function",
      "constant": true
    },
    {
      "inputs": [
        {
          "internalType": "string",
          "name": "tokenURI",
          "type": "string"
        }
      ],
      "name": "createToken",
      "outputs": [
        {
          "internalType": "uint256",
          "name": "",
          "type": "uint256"
        }
      ],
      "stateMutability": "payable",
      "type": "function",
      "payable": true
    },
    {
      "inputs": [
        {
          "internalType": "uint256",
          "name": "tokenId",
          "type": "uint256"
        },
        {
          "internalType": "uint256",
          "name": "price",
          "type": "uint256"
        }
      ],
      "name": "createMarketItem",
      "outputs": [],
      "stateMutability": "nonpayable",
      "type": "function"
    },
    {
      "inputs": [
        {
          "internalType": "uint256",
          "name": "tokenId",
          "type": "uint256"
        }
      ],
      "name": "createMarketSale",
      "outputs": [],
      "stateMutability": "nonpayable",
      "type": "function"
    },
    {
      "inputs": [],
      "name": "allMyNFT",
      "outputs": [
        {
          "internalType": "uint256[]",
          "name": "",
          "type": "uint256[]"
        }
      ],
      "stateMutability": "view",
      "type": "function",
      "constant": true
    },
    {
      "inputs": [],
      "name": "fetchMarketItems",
      "outputs": [
        {
          "components": [
            {
              "internalType": "uint256",
              "name": "tokenId",
              "type": "uint256"
            },
            {
              "internalType": "address",
              "name": "seller",
              "type": "address"
            },
            {
              "internalType": "address",
              "name": "owner",
              "type": "address"
            },
            {
              "internalType": "uint256",
              "name": "price",
              "type": "uint256"
            },
            {
              "internalType": "bool",
              "name": "sold",
              "type": "bool"
            }
          ],
          "internalType": "struct market.MarketItem[]",
          "name": "",
          "type": "tuple[]"
        }
      ],
      "stateMutability": "view",
      "type": "function",
      "constant": true
    },
    {
      "inputs": [],
      "name": "fetchMyNFTs",
      "outputs": [
        {
          "components": [
            {
              "internalType": "uint256",
              "name": "tokenId",
              "type": "uint256"
            },
            {
              "internalType": "address",
              "name": "seller",
              "type": "address"
            },
            {
              "internalType": "address",
              "name": "owner",
              "type": "address"
            },
            {
              "internalType": "uint256",
              "name": "price",
              "type": "uint256"
            },
            {
              "internalType": "bool",
              "name": "sold",
              "type": "bool"
            }
          ],
          "internalType": "struct market.MarketItem[]",
          "name": "",
          "type": "tuple[]"
        }
      ],
      "stateMutability": "view",
      "type": "function",
      "constant": true
    },
    {
      "inputs": [],
      "name": "fetchItemsListed",
      "outputs": [
        {
          "components": [
            {
              "internalType": "uint256",
              "name": "tokenId",
              "type": "uint256"
            },
            {
              "internalType": "address",
              "name": "seller",
              "type": "address"
            },
            {
              "internalType": "address",
              "name": "owner",
              "type": "address"
            },
            {
              "internalType": "uint256",
              "name": "price",
              "type": "uint256"
            },
            {
              "internalType": "bool",
              "name": "sold",
              "type": "bool"
            }
          ],
          "internalType": "struct market.MarketItem[]",
          "name": "",
          "type": "tuple[]"
        }
      ],
      "stateMutability": "view",
      "type": "function",
      "constant": true
    }
  ],
  "bytecode": "0x60806040523480156200001157600080fd5b5060405162004e8438038062004e848339818101604052810190620000379190620002cf565b6040518060400160405280601081526020017f4d657461766572736520546f6b656e73000000000000000000000000000000008152506040518060400160405280600481526020017f4d455454000000000000000000000000000000000000000000000000000000008152508160009080519060200190620000bb929190620001a1565b508060019080519060200190620000d4929190620001a1565b50505033600c60006101000a81548173ffffffffffffffffffffffffffffffffffffffff021916908373ffffffffffffffffffffffffffffffffffffffff16021790555080600a60006101000a81548173ffffffffffffffffffffffffffffffffffffffff021916908373ffffffffffffffffffffffffffffffffffffffff16021790555030600d60006101000a81548173ffffffffffffffffffffffffffffffffffffffff021916908373ffffffffffffffffffffffffffffffffffffffff1602179055505062000365565b828054620001af9062000330565b90600052602060002090601f016020900481019282620001d357600085556200021f565b82601f10620001ee57805160ff19168380011785556200021f565b828001600101855582156200021f579182015b828111156200021e57825182559160200191906001019062000201565b5b5090506200022e919062000232565b5090565b5b808211156200024d57600081600090555060010162000233565b5090565b600080fd5b600073ffffffffffffffffffffffffffffffffffffffff82169050919050565b6000620002838262000256565b9050919050565b6000620002978262000276565b9050919050565b620002a9816200028a565b8114620002b557600080fd5b50565b600081519050620002c9816200029e565b92915050565b600060208284031215620002e857620002e762000251565b5b6000620002f884828501620002b8565b91505092915050565b7f4e487b7100000000000000000000000000000000000000000000000000000000600052602260045260246000fd5b600060028204905060018216806200034957607f821691505b6020821081036200035f576200035e62000301565b5b50919050565b614b0f80620003756000396000f3fe60806040526004361061012a5760003560e01c806345f8fa80116100ab578063a22cb4651161006f578063a22cb465146103f9578063b88d4fde14610422578063be9af5361461044b578063c87b56dd14610474578063d4ea7fa2146104b1578063e985e9c5146104dc5761012a565b806345f8fa80146102fe5780636352211e1461032957806370a08231146103665780637c763d63146103a357806395d89b41146103ce5761012a565b8063202e3740116100f2578063202e37401461022857806323b872dd14610253578063361c19951461027c57806342842e0e146102a557806345576f94146102ce5761012a565b806301ffc9a71461012f57806306fdde031461016c578063081812fc14610197578063095ea7b3146101d45780630f08efe0146101fd575b600080fd5b34801561013b57600080fd5b50610156600480360381019061015191906131a5565b610519565b60405161016391906131ed565b60405180910390f35b34801561017857600080fd5b506101816105fb565b60405161018e91906132a1565b60405180910390f35b3480156101a357600080fd5b506101be60048036038101906101b991906132f9565b61068d565b6040516101cb9190613367565b60405180910390f35b3480156101e057600080fd5b506101fb60048036038101906101f691906133ae565b610712565b005b34801561020957600080fd5b50610212610829565b60405161021f9190613532565b60405180910390f35b34801561023457600080fd5b5061023d610a82565b60405161024a9190613532565b60405180910390f35b34801561025f57600080fd5b5061027a60048036038101906102759190613554565b610d6e565b005b34801561028857600080fd5b506102a3600480360381019061029e91906135a7565b610dce565b005b3480156102b157600080fd5b506102cc60048036038101906102c79190613554565b6111dc565b005b6102e860048036038101906102e3919061371c565b6111fc565b6040516102f59190613774565b60405180910390f35b34801561030a57600080fd5b50610313611431565b6040516103209190613532565b60405180910390f35b34801561033557600080fd5b50610350600480360381019061034b91906132f9565b61171d565b60405161035d9190613367565b60405180910390f35b34801561037257600080fd5b5061038d6004803603810190610388919061378f565b6117ce565b60405161039a9190613774565b60405180910390f35b3480156103af57600080fd5b506103b8611885565b6040516103c5919061386b565b60405180910390f35b3480156103da57600080fd5b506103e36119ad565b6040516103f091906132a1565b60405180910390f35b34801561040557600080fd5b50610420600480360381019061041b91906138b9565b611a3f565b005b34801561042e57600080fd5b506104496004803603810190610444919061399a565b611a55565b005b34801561045757600080fd5b50610472600480360381019061046d91906132f9565b611ab7565b005b34801561048057600080fd5b5061049b600480360381019061049691906132f9565b612079565b6040516104a891906132a1565b60405180910390f35b3480156104bd57600080fd5b506104c66121ca565b6040516104d39190613774565b60405180910390f35b3480156104e857600080fd5b5061050360048036038101906104fe9190613a1d565b61226d565b60405161051091906131ed565b60405180910390f35b60007f80ac58cd000000000000000000000000000000000000000000000000000000007bffffffffffffffffffffffffffffffffffffffffffffffffffffffff1916827bffffffffffffffffffffffffffffffffffffffffffffffffffffffff191614806105e457507f5b5e139f000000000000000000000000000000000000000000000000000000007bffffffffffffffffffffffffffffffffffffffffffffffffffffffff1916827bffffffffffffffffffffffffffffffffffffffffffffffffffffffff1916145b806105f457506105f382612301565b5b9050919050565b60606000805461060a90613a8c565b80601f016020809104026020016040519081016040528092919081815260200182805461063690613a8c565b80156106835780601f1061065857610100808354040283529160200191610683565b820191906000526020600020905b81548152906001019060200180831161066657829003601f168201915b5050505050905090565b60006106988261236b565b6106d7576040517f08c379a00000000000000000000000000000000000000000000000000000000081526004016106ce90613b2f565b60405180910390fd5b6004600083815260200190815260200160002060009054906101000a900473ffffffffffffffffffffffffffffffffffffffff169050919050565b600061071d8261171d565b90508073ffffffffffffffffffffffffffffffffffffffff168373ffffffffffffffffffffffffffffffffffffffff160361078d576040517f08c379a000000000000000000000000000000000000000000000000000000000815260040161078490613bc1565b60405180910390fd5b8073ffffffffffffffffffffffffffffffffffffffff166107ac6123d7565b73ffffffffffffffffffffffffffffffffffffffff1614806107db57506107da816107d56123d7565b61226d565b5b61081a576040517f08c379a000000000000000000000000000000000000000000000000000000000815260040161081190613c53565b60405180910390fd5b61082483836123df565b505050565b606060006108376008612498565b6108416009612498565b61084b9190613ca2565b90506000808267ffffffffffffffff81111561086a576108696135f1565b5b6040519080825280602002602001820160405280156108a357816020015b610890612fe7565b8152602001906001900390816108885790505b50905060005b83811015610a78573073ffffffffffffffffffffffffffffffffffffffff16600f60006001846108d99190613cd6565b815260200190815260200160002060020160009054906101000a900473ffffffffffffffffffffffffffffffffffffffff1673ffffffffffffffffffffffffffffffffffffffff1603610a655760006001826109359190613cd6565b90506000600f60008381526020019081526020016000209050806040518060a0016040529081600082015481526020016001820160009054906101000a900473ffffffffffffffffffffffffffffffffffffffff1673ffffffffffffffffffffffffffffffffffffffff1673ffffffffffffffffffffffffffffffffffffffff1681526020016002820160009054906101000a900473ffffffffffffffffffffffffffffffffffffffff1673ffffffffffffffffffffffffffffffffffffffff1673ffffffffffffffffffffffffffffffffffffffff168152602001600382015481526020016004820160009054906101000a900460ff161515151581525050848681518110610a4857610a47613d2c565b5b6020026020010181905250600185610a609190613cd6565b945050505b8080610a7090613d5b565b9150506108a9565b5080935050505090565b60606000610a906007612498565b905060008060005b83811015610b38573373ffffffffffffffffffffffffffffffffffffffff16600f6000600184610ac89190613cd6565b815260200190815260200160002060020160009054906101000a900473ffffffffffffffffffffffffffffffffffffffff1673ffffffffffffffffffffffffffffffffffffffff1603610b2557600183610b229190613cd6565b92505b8080610b3090613d5b565b915050610a98565b5060008267ffffffffffffffff811115610b5557610b546135f1565b5b604051908082528060200260200182016040528015610b8e57816020015b610b7b612fe7565b815260200190600190039081610b735790505b50905060005b84811015610d63573373ffffffffffffffffffffffffffffffffffffffff16600f6000600184610bc49190613cd6565b815260200190815260200160002060020160009054906101000a900473ffffffffffffffffffffffffffffffffffffffff1673ffffffffffffffffffffffffffffffffffffffff1603610d50576000600182610c209190613cd6565b90506000600f60008381526020019081526020016000209050806040518060a0016040529081600082015481526020016001820160009054906101000a900473ffffffffffffffffffffffffffffffffffffffff1673ffffffffffffffffffffffffffffffffffffffff1673ffffffffffffffffffffffffffffffffffffffff1681526020016002820160009054906101000a900473ffffffffffffffffffffffffffffffffffffffff1673ffffffffffffffffffffffffffffffffffffffff1673ffffffffffffffffffffffffffffffffffffffff168152602001600382015481526020016004820160009054906101000a900460ff161515151581525050848681518110610d3357610d32613d2c565b5b6020026020010181905250600185610d4b9190613cd6565b945050505b8080610d5b90613d5b565b915050610b94565b508094505050505090565b610d7f610d796123d7565b826124a6565b610dbe576040517f08c379a0000000000000000000000000000000000000000000000000000000008152600401610db590613e15565b60405180910390fd5b610dc9838383612584565b505050565b3373ffffffffffffffffffffffffffffffffffffffff16610dee8361171d565b73ffffffffffffffffffffffffffffffffffffffff1614610e44576040517f08c379a0000000000000000000000000000000000000000000000000000000008152600401610e3b90613ea7565b60405180910390fd5b60008111610e87576040517f08c379a0000000000000000000000000000000000000000000000000000000008152600401610e7e90613f39565b60405180910390fd5b610e92333084612584565b610e9c60096127ea565b6040518060a001604052808381526020013373ffffffffffffffffffffffffffffffffffffffff1681526020013073ffffffffffffffffffffffffffffffffffffffff168152602001670de0b6b3a764000083610ef99190613f59565b815260200160001515815250600f60008481526020019081526020016000206000820151816000015560208201518160010160006101000a81548173ffffffffffffffffffffffffffffffffffffffff021916908373ffffffffffffffffffffffffffffffffffffffff16021790555060408201518160020160006101000a81548173ffffffffffffffffffffffffffffffffffffffff021916908373ffffffffffffffffffffffffffffffffffffffff1602179055506060820151816003015560808201518160040160006101000a81548160ff0219169083151502179055509050506000601060003373ffffffffffffffffffffffffffffffffffffffff1673ffffffffffffffffffffffffffffffffffffffff168152602001908152602001600020905060005b8180549050811015611148573373ffffffffffffffffffffffffffffffffffffffff1661106c83838154811061105c5761105b613d2c565b5b906000526020600020015461171d565b73ffffffffffffffffffffffffffffffffffffffff16036110ae578082828154811061109b5761109a613d2c565b5b9060005260206000200181905550611135565b818054905081106110be57600080fd5b81600183805490506110d09190613ca2565b815481106110e1576110e0613d2c565b5b90600052602060002001548282815481106110ff576110fe613d2c565b5b90600052602060002001819055508180548061111e5761111d613fb3565b5b600190038181906000526020600020016000905590555b808061114090613d5b565b915050611023565b5080601060003373ffffffffffffffffffffffffffffffffffffffff1673ffffffffffffffffffffffffffffffffffffffff168152602001908152602001600020908054611197929190613044565b50827fb640004f1d14576d0c209e240cad0410e0d8c0c33a09375861fbadae2588a98d33308560006040516111cf9493929190613fe2565b60405180910390a2505050565b6111f783838360405180602001604052806000815250611a55565b505050565b600080690a968163f0a57b400000905080600a60009054906101000a900473ffffffffffffffffffffffffffffffffffffffff1673ffffffffffffffffffffffffffffffffffffffff166370a08231336040518263ffffffff1660e01b81526004016112689190613367565b602060405180830381865afa158015611285573d6000803e3d6000fd5b505050506040513d601f19601f820116820180604052508101906112a9919061403c565b10156112ea576040517f08c379a00000000000000000000000000000000000000000000000000000000081526004016112e1906140b5565b60405180910390fd5b600a60009054906101000a900473ffffffffffffffffffffffffffffffffffffffff1673ffffffffffffffffffffffffffffffffffffffff166323b872dd3330846040518463ffffffff1660e01b8152600401611349939291906140d5565b6020604051808303816000875af1158015611368573d6000803e3d6000fd5b505050506040513d601f19601f8201168201806040525081019061138c9190614121565b61139557600080fd5b61139f60076127ea565b60006113ab6007612498565b90506113b73382612800565b6113c181856129d9565b601060003373ffffffffffffffffffffffffffffffffffffffff1673ffffffffffffffffffffffffffffffffffffffff1681526020019081526020016000208190806001815401808255809150506001900390600052602060002001600090919091909150558092505050919050565b6060600061143f6007612498565b905060008060005b838110156114e7573373ffffffffffffffffffffffffffffffffffffffff16600f60006001846114779190613cd6565b815260200190815260200160002060010160009054906101000a900473ffffffffffffffffffffffffffffffffffffffff1673ffffffffffffffffffffffffffffffffffffffff16036114d4576001836114d19190613cd6565b92505b80806114df90613d5b565b915050611447565b5060008267ffffffffffffffff811115611504576115036135f1565b5b60405190808252806020026020018201604052801561153d57816020015b61152a612fe7565b8152602001906001900390816115225790505b50905060005b84811015611712573373ffffffffffffffffffffffffffffffffffffffff16600f60006001846115739190613cd6565b815260200190815260200160002060010160009054906101000a900473ffffffffffffffffffffffffffffffffffffffff1673ffffffffffffffffffffffffffffffffffffffff16036116ff5760006001826115cf9190613cd6565b90506000600f60008381526020019081526020016000209050806040518060a0016040529081600082015481526020016001820160009054906101000a900473ffffffffffffffffffffffffffffffffffffffff1673ffffffffffffffffffffffffffffffffffffffff1673ffffffffffffffffffffffffffffffffffffffff1681526020016002820160009054906101000a900473ffffffffffffffffffffffffffffffffffffffff1673ffffffffffffffffffffffffffffffffffffffff1673ffffffffffffffffffffffffffffffffffffffff168152602001600382015481526020016004820160009054906101000a900460ff1615151515815250508486815181106116e2576116e1613d2c565b5b60200260200101819052506001856116fa9190613cd6565b945050505b808061170a90613d5b565b915050611543565b508094505050505090565b6000806002600084815260200190815260200160002060009054906101000a900473ffffffffffffffffffffffffffffffffffffffff169050600073ffffffffffffffffffffffffffffffffffffffff168173ffffffffffffffffffffffffffffffffffffffff16036117c5576040517f08c379a00000000000000000000000000000000000000000000000000000000081526004016117bc906141c0565b60405180910390fd5b80915050919050565b60008073ffffffffffffffffffffffffffffffffffffffff168273ffffffffffffffffffffffffffffffffffffffff160361183e576040517f08c379a000000000000000000000000000000000000000000000000000000000815260040161183590614252565b60405180910390fd5b600360008373ffffffffffffffffffffffffffffffffffffffff1673ffffffffffffffffffffffffffffffffffffffff168152602001908152602001600020549050919050565b60606000601060003373ffffffffffffffffffffffffffffffffffffffff1673ffffffffffffffffffffffffffffffffffffffff1681526020019081526020016000208054905067ffffffffffffffff8111156118e5576118e46135f1565b5b6040519080825280602002602001820160405280156119135781602001602082028036833780820191505090505b509050601060003373ffffffffffffffffffffffffffffffffffffffff1673ffffffffffffffffffffffffffffffffffffffff16815260200190815260200160002080548060200260200160405190810160405280929190818152602001828054801561199f57602002820191906000526020600020905b81548152602001906001019080831161198b575b505050505090508091505090565b6060600180546119bc90613a8c565b80601f01602080910402602001604051908101604052809291908181526020018280546119e890613a8c565b8015611a355780601f10611a0a57610100808354040283529160200191611a35565b820191906000526020600020905b815481529060010190602001808311611a1857829003601f168201915b5050505050905090565b611a51611a4a6123d7565b8383612a4d565b5050565b611a66611a606123d7565b836124a6565b611aa5576040517f08c379a0000000000000000000000000000000000000000000000000000000008152600401611a9c90613e15565b60405180910390fd5b611ab184848484612bb9565b50505050565b6000600f60008381526020019081526020016000206003015490506000600f600084815260200190815260200160002060010160009054906101000a900473ffffffffffffffffffffffffffffffffffffffff16905081600a60009054906101000a900473ffffffffffffffffffffffffffffffffffffffff1673ffffffffffffffffffffffffffffffffffffffff166370a08231336040518263ffffffff1660e01b8152600401611b699190613367565b602060405180830381865afa158015611b86573d6000803e3d6000fd5b505050506040513d601f19601f82011682018060405250810190611baa919061403c565b1015611beb576040517f08c379a0000000000000000000000000000000000000000000000000000000008152600401611be2906142e4565b60405180910390fd5b3373ffffffffffffffffffffffffffffffffffffffff16600f600085815260200190815260200160002060010160009054906101000a900473ffffffffffffffffffffffffffffffffffffffff1673ffffffffffffffffffffffffffffffffffffffff1603611c5957600080fd5b600a60009054906101000a900473ffffffffffffffffffffffffffffffffffffffff1673ffffffffffffffffffffffffffffffffffffffff1663a9059cbb82846040518363ffffffff1660e01b8152600401611cb6929190614304565b6020604051808303816000875af1158015611cd5573d6000803e3d6000fd5b505050506040513d601f19601f82011682018060405250810190611cf99190614121565b50611d05303385612584565b33600f600085815260200190815260200160002060020160006101000a81548173ffffffffffffffffffffffffffffffffffffffff021916908373ffffffffffffffffffffffffffffffffffffffff1602179055506001600f600085815260200190815260200160002060040160006101000a81548160ff0219169083151502179055506000600f600085815260200190815260200160002060010160006101000a81548173ffffffffffffffffffffffffffffffffffffffff021916908373ffffffffffffffffffffffffffffffffffffffff160217905550611de960086127ea565b6000601060008373ffffffffffffffffffffffffffffffffffffffff1673ffffffffffffffffffffffffffffffffffffffff168152602001908152602001600020905060005b8180549050811015611f54578273ffffffffffffffffffffffffffffffffffffffff16611e78838381548110611e6857611e67613d2c565b5b906000526020600020015461171d565b73ffffffffffffffffffffffffffffffffffffffff1603611eba5780828281548110611ea757611ea6613d2c565b5b9060005260206000200181905550611f41565b81805490508110611eca57600080fd5b8160018380549050611edc9190613ca2565b81548110611eed57611eec613d2c565b5b9060005260206000200154828281548110611f0b57611f0a613d2c565b5b906000526020600020018190555081805480611f2a57611f29613fb3565b5b600190038181906000526020600020016000905590555b8080611f4c90613d5b565b915050611e2f565b5080601060008473ffffffffffffffffffffffffffffffffffffffff1673ffffffffffffffffffffffffffffffffffffffff168152602001908152602001600020908054611fa3929190613044565b50601060003373ffffffffffffffffffffffffffffffffffffffff1673ffffffffffffffffffffffffffffffffffffffff1681526020019081526020016000208490806001815401808255809150506001900390600052602060002001600090919091909150556120146008612498565b50837f150ffca547cf855e7fcf5daa82e41c6523b5fb2c8b1309bbb6cf2f87c6ae5a3183600c60009054906101000a900473ffffffffffffffffffffffffffffffffffffffff168660405161206b9392919061438c565b60405180910390a250505050565b60606120848261236b565b6120c3576040517f08c379a00000000000000000000000000000000000000000000000000000000081526004016120ba90614435565b60405180910390fd5b60006006600084815260200190815260200160002080546120e390613a8c565b80601f016020809104026020016040519081016040528092919081815260200182805461210f90613a8c565b801561215c5780601f106121315761010080835404028352916020019161215c565b820191906000526020600020905b81548152906001019060200180831161213f57829003601f168201915b50505050509050600061216d612c15565b905060008151036121825781925050506121c5565b6000825111156121b757808260405160200161219f929190614491565b604051602081830303815290604052925050506121c5565b6121c084612c2c565b925050505b919050565b6000600a60009054906101000a900473ffffffffffffffffffffffffffffffffffffffff1673ffffffffffffffffffffffffffffffffffffffff166370a08231306040518263ffffffff1660e01b81526004016122279190613367565b602060405180830381865afa158015612244573d6000803e3d6000fd5b505050506040513d601f19601f82011682018060405250810190612268919061403c565b905090565b6000600560008473ffffffffffffffffffffffffffffffffffffffff1673ffffffffffffffffffffffffffffffffffffffff16815260200190815260200160002060008373ffffffffffffffffffffffffffffffffffffffff1673ffffffffffffffffffffffffffffffffffffffff16815260200190815260200160002060009054906101000a900460ff16905092915050565b60007f01ffc9a7000000000000000000000000000000000000000000000000000000007bffffffffffffffffffffffffffffffffffffffffffffffffffffffff1916827bffffffffffffffffffffffffffffffffffffffffffffffffffffffff1916149050919050565b60008073ffffffffffffffffffffffffffffffffffffffff166002600084815260200190815260200160002060009054906101000a900473ffffffffffffffffffffffffffffffffffffffff1673ffffffffffffffffffffffffffffffffffffffff1614159050919050565b600033905090565b816004600083815260200190815260200160002060006101000a81548173ffffffffffffffffffffffffffffffffffffffff021916908373ffffffffffffffffffffffffffffffffffffffff160217905550808273ffffffffffffffffffffffffffffffffffffffff166124528361171d565b73ffffffffffffffffffffffffffffffffffffffff167f8c5be1e5ebec7d5bd14f71427d1e84f3dd0314c0f7b2291e5b200ac8c7c3b92560405160405180910390a45050565b600081600001549050919050565b60006124b18261236b565b6124f0576040517f08c379a00000000000000000000000000000000000000000000000000000000081526004016124e790614527565b60405180910390fd5b60006124fb8361171d565b90508073ffffffffffffffffffffffffffffffffffffffff168473ffffffffffffffffffffffffffffffffffffffff16148061256a57508373ffffffffffffffffffffffffffffffffffffffff166125528461068d565b73ffffffffffffffffffffffffffffffffffffffff16145b8061257b575061257a818561226d565b5b91505092915050565b8273ffffffffffffffffffffffffffffffffffffffff166125a48261171d565b73ffffffffffffffffffffffffffffffffffffffff16146125fa576040517f08c379a00000000000000000000000000000000000000000000000000000000081526004016125f1906145b9565b60405180910390fd5b600073ffffffffffffffffffffffffffffffffffffffff168273ffffffffffffffffffffffffffffffffffffffff1603612669576040517f08c379a00000000000000000000000000000000000000000000000000000000081526004016126609061464b565b60405180910390fd5b612674838383612cd3565b61267f6000826123df565b6001600360008573ffffffffffffffffffffffffffffffffffffffff1673ffffffffffffffffffffffffffffffffffffffff16815260200190815260200160002060008282546126cf9190613ca2565b925050819055506001600360008473ffffffffffffffffffffffffffffffffffffffff1673ffffffffffffffffffffffffffffffffffffffff16815260200190815260200160002060008282546127269190613cd6565b92505081905550816002600083815260200190815260200160002060006101000a81548173ffffffffffffffffffffffffffffffffffffffff021916908373ffffffffffffffffffffffffffffffffffffffff160217905550808273ffffffffffffffffffffffffffffffffffffffff168473ffffffffffffffffffffffffffffffffffffffff167fddf252ad1be2c89b69c2b068fc378daa952ba7f163c4a11628f55a4df523b3ef60405160405180910390a46127e5838383612cd8565b505050565b6001816000016000828254019250508190555050565b600073ffffffffffffffffffffffffffffffffffffffff168273ffffffffffffffffffffffffffffffffffffffff160361286f576040517f08c379a0000000000000000000000000000000000000000000000000000000008152600401612866906146b7565b60405180910390fd5b6128788161236b565b156128b8576040517f08c379a00000000000000000000000000000000000000000000000000000000081526004016128af90614723565b60405180910390fd5b6128c460008383612cd3565b6001600360008473ffffffffffffffffffffffffffffffffffffffff1673ffffffffffffffffffffffffffffffffffffffff16815260200190815260200160002060008282546129149190613cd6565b92505081905550816002600083815260200190815260200160002060006101000a81548173ffffffffffffffffffffffffffffffffffffffff021916908373ffffffffffffffffffffffffffffffffffffffff160217905550808273ffffffffffffffffffffffffffffffffffffffff16600073ffffffffffffffffffffffffffffffffffffffff167fddf252ad1be2c89b69c2b068fc378daa952ba7f163c4a11628f55a4df523b3ef60405160405180910390a46129d560008383612cd8565b5050565b6129e28261236b565b612a21576040517f08c379a0000000000000000000000000000000000000000000000000000000008152600401612a18906147b5565b60405180910390fd5b80600660008481526020019081526020016000209080519060200190612a48929190613096565b505050565b8173ffffffffffffffffffffffffffffffffffffffff168373ffffffffffffffffffffffffffffffffffffffff1603612abb576040517f08c379a0000000000000000000000000000000000000000000000000000000008152600401612ab290614821565b60405180910390fd5b80600560008573ffffffffffffffffffffffffffffffffffffffff1673ffffffffffffffffffffffffffffffffffffffff16815260200190815260200160002060008473ffffffffffffffffffffffffffffffffffffffff1673ffffffffffffffffffffffffffffffffffffffff16815260200190815260200160002060006101000a81548160ff0219169083151502179055508173ffffffffffffffffffffffffffffffffffffffff168373ffffffffffffffffffffffffffffffffffffffff167f17307eab39ab6107e8899845ad3d59bd9653f200f220920489ca2b5937696c3183604051612bac91906131ed565b60405180910390a3505050565b612bc4848484612584565b612bd084848484612cdd565b612c0f576040517f08c379a0000000000000000000000000000000000000000000000000000000008152600401612c06906148b3565b60405180910390fd5b50505050565b606060405180602001604052806000815250905090565b6060612c378261236b565b612c76576040517f08c379a0000000000000000000000000000000000000000000000000000000008152600401612c6d90614945565b60405180910390fd5b6000612c80612c15565b90506000815111612ca05760405180602001604052806000815250612ccb565b80612caa84612e64565b604051602001612cbb929190614491565b6040516020818303038152906040525b915050919050565b505050565b505050565b6000612cfe8473ffffffffffffffffffffffffffffffffffffffff16612fc4565b15612e57578373ffffffffffffffffffffffffffffffffffffffff1663150b7a02612d276123d7565b8786866040518563ffffffff1660e01b8152600401612d4994939291906149ba565b6020604051808303816000875af1925050508015612d8557506040513d601f19601f82011682018060405250810190612d829190614a1b565b60015b612e07573d8060008114612db5576040519150601f19603f3d011682016040523d82523d6000602084013e612dba565b606091505b506000815103612dff576040517f08c379a0000000000000000000000000000000000000000000000000000000008152600401612df6906148b3565b60405180910390fd5b805181602001fd5b63150b7a0260e01b7bffffffffffffffffffffffffffffffffffffffffffffffffffffffff1916817bffffffffffffffffffffffffffffffffffffffffffffffffffffffff191614915050612e5c565b600190505b949350505050565b606060008203612eab576040518060400160405280600181526020017f30000000000000000000000000000000000000000000000000000000000000008152509050612fbf565b600082905060005b60008214612edd578080612ec690613d5b565b915050600a82612ed69190614a77565b9150612eb3565b60008167ffffffffffffffff811115612ef957612ef86135f1565b5b6040519080825280601f01601f191660200182016040528015612f2b5781602001600182028036833780820191505090505b5090505b60008514612fb857600182612f449190613ca2565b9150600a85612f539190614aa8565b6030612f5f9190613cd6565b60f81b818381518110612f7557612f74613d2c565b5b60200101907effffffffffffffffffffffffffffffffffffffffffffffffffffffffffffff1916908160001a905350600a85612fb19190614a77565b9450612f2f565b8093505050505b919050565b6000808273ffffffffffffffffffffffffffffffffffffffff163b119050919050565b6040518060a0016040528060008152602001600073ffffffffffffffffffffffffffffffffffffffff168152602001600073ffffffffffffffffffffffffffffffffffffffff168152602001600081526020016000151581525090565b8280548282559060005260206000209081019282156130855760005260206000209182015b82811115613084578254825591600101919060010190613069565b5b509050613092919061311c565b5090565b8280546130a290613a8c565b90600052602060002090601f0160209004810192826130c4576000855561310b565b82601f106130dd57805160ff191683800117855561310b565b8280016001018555821561310b579182015b8281111561310a5782518255916020019190600101906130ef565b5b509050613118919061311c565b5090565b5b8082111561313557600081600090555060010161311d565b5090565b6000604051905090565b600080fd5b600080fd5b60007fffffffff0000000000000000000000000000000000000000000000000000000082169050919050565b6131828161314d565b811461318d57600080fd5b50565b60008135905061319f81613179565b92915050565b6000602082840312156131bb576131ba613143565b5b60006131c984828501613190565b91505092915050565b60008115159050919050565b6131e7816131d2565b82525050565b600060208201905061320260008301846131de565b92915050565b600081519050919050565b600082825260208201905092915050565b60005b83811015613242578082015181840152602081019050613227565b83811115613251576000848401525b50505050565b6000601f19601f8301169050919050565b600061327382613208565b61327d8185613213565b935061328d818560208601613224565b61329681613257565b840191505092915050565b600060208201905081810360008301526132bb8184613268565b905092915050565b6000819050919050565b6132d6816132c3565b81146132e157600080fd5b50565b6000813590506132f3816132cd565b92915050565b60006020828403121561330f5761330e613143565b5b600061331d848285016132e4565b91505092915050565b600073ffffffffffffffffffffffffffffffffffffffff82169050919050565b600061335182613326565b9050919050565b61336181613346565b82525050565b600060208201905061337c6000830184613358565b92915050565b61338b81613346565b811461339657600080fd5b50565b6000813590506133a881613382565b92915050565b600080604083850312156133c5576133c4613143565b5b60006133d385828601613399565b92505060206133e4858286016132e4565b9150509250929050565b600081519050919050565b600082825260208201905092915050565b6000819050602082019050919050565b613423816132c3565b82525050565b61343281613346565b82525050565b613441816131d2565b82525050565b60a08201600082015161345d600085018261341a565b5060208201516134706020850182613429565b5060408201516134836040850182613429565b506060820151613496606085018261341a565b5060808201516134a96080850182613438565b50505050565b60006134bb8383613447565b60a08301905092915050565b6000602082019050919050565b60006134df826133ee565b6134e981856133f9565b93506134f48361340a565b8060005b8381101561352557815161350c88826134af565b9750613517836134c7565b9250506001810190506134f8565b5085935050505092915050565b6000602082019050818103600083015261354c81846134d4565b905092915050565b60008060006060848603121561356d5761356c613143565b5b600061357b86828701613399565b935050602061358c86828701613399565b925050604061359d868287016132e4565b9150509250925092565b600080604083850312156135be576135bd613143565b5b60006135cc858286016132e4565b92505060206135dd858286016132e4565b9150509250929050565b600080fd5b600080fd5b7f4e487b7100000000000000000000000000000000000000000000000000000000600052604160045260246000fd5b61362982613257565b810181811067ffffffffffffffff82111715613648576136476135f1565b5b80604052505050565b600061365b613139565b90506136678282613620565b919050565b600067ffffffffffffffff821115613687576136866135f1565b5b61369082613257565b9050602081019050919050565b82818337600083830152505050565b60006136bf6136ba8461366c565b613651565b9050828152602081018484840111156136db576136da6135ec565b5b6136e684828561369d565b509392505050565b600082601f830112613703576137026135e7565b5b81356137138482602086016136ac565b91505092915050565b60006020828403121561373257613731613143565b5b600082013567ffffffffffffffff8111156137505761374f613148565b5b61375c848285016136ee565b91505092915050565b61376e816132c3565b82525050565b60006020820190506137896000830184613765565b92915050565b6000602082840312156137a5576137a4613143565b5b60006137b384828501613399565b91505092915050565b600081519050919050565b600082825260208201905092915050565b6000819050602082019050919050565b60006137f4838361341a565b60208301905092915050565b6000602082019050919050565b6000613818826137bc565b61382281856137c7565b935061382d836137d8565b8060005b8381101561385e57815161384588826137e8565b975061385083613800565b925050600181019050613831565b5085935050505092915050565b60006020820190508181036000830152613885818461380d565b905092915050565b613896816131d2565b81146138a157600080fd5b50565b6000813590506138b38161388d565b92915050565b600080604083850312156138d0576138cf613143565b5b60006138de85828601613399565b92505060206138ef858286016138a4565b9150509250929050565b600067ffffffffffffffff821115613914576139136135f1565b5b61391d82613257565b9050602081019050919050565b600061393d613938846138f9565b613651565b905082815260208101848484011115613959576139586135ec565b5b61396484828561369d565b509392505050565b600082601f830112613981576139806135e7565b5b813561399184826020860161392a565b91505092915050565b600080600080608085870312156139b4576139b3613143565b5b60006139c287828801613399565b94505060206139d387828801613399565b93505060406139e4878288016132e4565b925050606085013567ffffffffffffffff811115613a0557613a04613148565b5b613a118782880161396c565b91505092959194509250565b60008060408385031215613a3457613a33613143565b5b6000613a4285828601613399565b9250506020613a5385828601613399565b9150509250929050565b7f4e487b7100000000000000000000000000000000000000000000000000000000600052602260045260246000fd5b60006002820490506001821680613aa457607f821691505b602082108103613ab757613ab6613a5d565b5b50919050565b7f4552433732313a20617070726f76656420717565727920666f72206e6f6e657860008201527f697374656e7420746f6b656e0000000000000000000000000000000000000000602082015250565b6000613b19602c83613213565b9150613b2482613abd565b604082019050919050565b60006020820190508181036000830152613b4881613b0c565b9050919050565b7f4552433732313a20617070726f76616c20746f2063757272656e74206f776e6560008201527f7200000000000000000000000000000000000000000000000000000000000000602082015250565b6000613bab602183613213565b9150613bb682613b4f565b604082019050919050565b60006020820190508181036000830152613bda81613b9e565b9050919050565b7f4552433732313a20617070726f76652063616c6c6572206973206e6f74206f7760008201527f6e6572206e6f7220617070726f76656420666f7220616c6c0000000000000000602082015250565b6000613c3d603883613213565b9150613c4882613be1565b604082019050919050565b60006020820190508181036000830152613c6c81613c30565b9050919050565b7f4e487b7100000000000000000000000000000000000000000000000000000000600052601160045260246000fd5b6000613cad826132c3565b9150613cb8836132c3565b925082821015613ccb57613cca613c73565b5b828203905092915050565b6000613ce1826132c3565b9150613cec836132c3565b9250827fffffffffffffffffffffffffffffffffffffffffffffffffffffffffffffffff03821115613d2157613d20613c73565b5b828201905092915050565b7f4e487b7100000000000000000000000000000000000000000000000000000000600052603260045260246000fd5b6000613d66826132c3565b91507fffffffffffffffffffffffffffffffffffffffffffffffffffffffffffffffff8203613d9857613d97613c73565b5b600182019050919050565b7f4552433732313a207472616e736665722063616c6c6572206973206e6f74206f60008201527f776e6572206e6f7220617070726f766564000000000000000000000000000000602082015250565b6000613dff603183613213565b9150613e0a82613da3565b604082019050919050565b60006020820190508181036000830152613e2e81613df2565b9050919050565b7f4f6e6c79206974656d206f776e65722063616e20706572666f726d207468697360008201527f206f7065726174696f6e00000000000000000000000000000000000000000000602082015250565b6000613e91602a83613213565b9150613e9c82613e35565b604082019050919050565b60006020820190508181036000830152613ec081613e84565b9050919050565b7f5072696365206d75737420626520657175616c20746f206c697374696e67207060008201527f7269636500000000000000000000000000000000000000000000000000000000602082015250565b6000613f23602483613213565b9150613f2e82613ec7565b604082019050919050565b60006020820190508181036000830152613f5281613f16565b9050919050565b6000613f64826132c3565b9150613f6f836132c3565b9250817fffffffffffffffffffffffffffffffffffffffffffffffffffffffffffffffff0483118215151615613fa857613fa7613c73565b5b828202905092915050565b7f4e487b7100000000000000000000000000000000000000000000000000000000600052603160045260246000fd5b6000608082019050613ff76000830187613358565b6140046020830186613358565b6140116040830185613765565b61401e60608301846131de565b95945050505050565b600081519050614036816132cd565b92915050565b60006020828403121561405257614051613143565b5b600061406084828501614027565b91505092915050565b7f696e73756666696369656e742062616c616e6365000000000000000000000000600082015250565b600061409f601483613213565b91506140aa82614069565b602082019050919050565b600060208201905081810360008301526140ce81614092565b9050919050565b60006060820190506140ea6000830186613358565b6140f76020830185613358565b6141046040830184613765565b949350505050565b60008151905061411b8161388d565b92915050565b60006020828403121561413757614136613143565b5b60006141458482850161410c565b91505092915050565b7f4552433732313a206f776e657220717565727920666f72206e6f6e657869737460008201527f656e7420746f6b656e0000000000000000000000000000000000000000000000602082015250565b60006141aa602983613213565b91506141b58261414e565b604082019050919050565b600060208201905081810360008301526141d98161419d565b9050919050565b7f4552433732313a2062616c616e636520717565727920666f7220746865207a6560008201527f726f206164647265737300000000000000000000000000000000000000000000602082015250565b600061423c602a83613213565b9150614247826141e0565b604082019050919050565b6000602082019050818103600083015261426b8161422f565b9050919050565b7f506c65617365207375626d6974207468652061736b696e67207072696365206960008201527f6e206f7264657220746f20636f6d706c65746520746865207075726368617365602082015250565b60006142ce604083613213565b91506142d982614272565b604082019050919050565b600060208201905081810360008301526142fd816142c1565b9050919050565b60006040820190506143196000830185613358565b6143266020830184613765565b9392505050565b6000819050919050565b600061435261434d61434884613326565b61432d565b613326565b9050919050565b600061436482614337565b9050919050565b600061437682614359565b9050919050565b6143868161436b565b82525050565b60006060820190506143a16000830186613358565b6143ae602083018561437d565b6143bb6040830184613765565b949350505050565b7f45524337323155524953746f726167653a2055524920717565727920666f722060008201527f6e6f6e6578697374656e7420746f6b656e000000000000000000000000000000602082015250565b600061441f603183613213565b915061442a826143c3565b604082019050919050565b6000602082019050818103600083015261444e81614412565b9050919050565b600081905092915050565b600061446b82613208565b6144758185614455565b9350614485818560208601613224565b80840191505092915050565b600061449d8285614460565b91506144a98284614460565b91508190509392505050565b7f4552433732313a206f70657261746f7220717565727920666f72206e6f6e657860008201527f697374656e7420746f6b656e0000000000000000000000000000000000000000602082015250565b6000614511602c83613213565b915061451c826144b5565b604082019050919050565b6000602082019050818103600083015261454081614504565b9050919050565b7f4552433732313a207472616e736665722066726f6d20696e636f72726563742060008201527f6f776e6572000000000000000000000000000000000000000000000000000000602082015250565b60006145a3602583613213565b91506145ae82614547565b604082019050919050565b600060208201905081810360008301526145d281614596565b9050919050565b7f4552433732313a207472616e7366657220746f20746865207a65726f2061646460008201527f7265737300000000000000000000000000000000000000000000000000000000602082015250565b6000614635602483613213565b9150614640826145d9565b604082019050919050565b6000602082019050818103600083015261466481614628565b9050919050565b7f4552433732313a206d696e7420746f20746865207a65726f2061646472657373600082015250565b60006146a1602083613213565b91506146ac8261466b565b602082019050919050565b600060208201905081810360008301526146d081614694565b9050919050565b7f4552433732313a20746f6b656e20616c7265616479206d696e74656400000000600082015250565b600061470d601c83613213565b9150614718826146d7565b602082019050919050565b6000602082019050818103600083015261473c81614700565b9050919050565b7f45524337323155524953746f726167653a2055524920736574206f66206e6f6e60008201527f6578697374656e7420746f6b656e000000000000000000000000000000000000602082015250565b600061479f602e83613213565b91506147aa82614743565b604082019050919050565b600060208201905081810360008301526147ce81614792565b9050919050565b7f4552433732313a20617070726f766520746f2063616c6c657200000000000000600082015250565b600061480b601983613213565b9150614816826147d5565b602082019050919050565b6000602082019050818103600083015261483a816147fe565b9050919050565b7f4552433732313a207472616e7366657220746f206e6f6e20455243373231526560008201527f63656976657220696d706c656d656e7465720000000000000000000000000000602082015250565b600061489d603283613213565b91506148a882614841565b604082019050919050565b600060208201905081810360008301526148cc81614890565b9050919050565b7f4552433732314d657461646174613a2055524920717565727920666f72206e6f60008201527f6e6578697374656e7420746f6b656e0000000000000000000000000000000000602082015250565b600061492f602f83613213565b915061493a826148d3565b604082019050919050565b6000602082019050818103600083015261495e81614922565b9050919050565b600081519050919050565b600082825260208201905092915050565b600061498c82614965565b6149968185614970565b93506149a6818560208601613224565b6149af81613257565b840191505092915050565b60006080820190506149cf6000830187613358565b6149dc6020830186613358565b6149e96040830185613765565b81810360608301526149fb8184614981565b905095945050505050565b600081519050614a1581613179565b92915050565b600060208284031215614a3157614a30613143565b5b6000614a3f84828501614a06565b91505092915050565b7f4e487b7100000000000000000000000000000000000000000000000000000000600052601260045260246000fd5b6000614a82826132c3565b9150614a8d836132c3565b925082614a9d57614a9c614a48565b5b828204905092915050565b6000614ab3826132c3565b9150614abe836132c3565b925082614ace57614acd614a48565b5b82820690509291505056fea2646970667358221220b5b04b53e736d5bbfcc3cf295f7e18f3b82fb9b433c0b677d3c8e09022e0579e64736f6c634300080d0033",
  "immutableReferences": {},
  "source": "// SPDX-License-Identifier: MIT\r\npragma solidity ^0.8.4;\r\n\r\nimport \"@openzeppelin/contracts/utils/Counters.sol\";\r\nimport \"@openzeppelin/contracts/token/ERC721/extensions/ERC721URIStorage.sol\";\r\nimport \"@openzeppelin/contracts/token/ERC721/ERC721.sol\";\r\nimport \"./ERC20.sol\";\r\n\r\n\r\ncontract market is ERC721URIStorage {\r\n\r\n    using Counters for Counters.Counter;\r\n    Counters.Counter private _tokenIds;\r\n    Counters.Counter private _itemsSold;\r\n    Counters.Counter private _itemsMarket;\r\n    Token private token;\r\n    uint256 private listingPrice;\r\n    address payable owner;\r\n    address payable private contrato;\r\n    uint256 [] private ListNft;\r\n    mapping(uint256 => MarketItem) private idToMarketItem;\r\n    mapping(address =>  uint256[]) private listMyNFT;\r\n       struct MarketItem {\r\n      uint256 tokenId;\r\n      address seller;\r\n      address owner;\r\n      uint256 price;\r\n      bool sold;\r\n    }\r\n\r\n\r\n    event MarketItemCreated (\r\n      uint256 indexed tokenId,\r\n      address seller,\r\n      address owner,\r\n      uint256 price,\r\n      bool sold\r\n    );\r\n    \r\n    event MarketItemSold (\r\n      uint256 indexed tokenId,\r\n      address seller,\r\n      address owner,\r\n      uint256 price\r\n    );\r\n\r\n    constructor(Token _token) ERC721(\"Metaverse Tokens\", \"METT\") {\r\n      owner = payable(msg.sender);\r\n      token = _token;\r\n      contrato = payable(address(this));\r\n    }\r\n\r\n    function balanceContrato() public view returns (uint) {\r\n       return token.balanceOf(address(this));\r\n    }\r\n    //  function balance() public view returns (address) {\r\n    //    return token.transferencia();\r\n    // }\r\n    /* Mints a token */\r\n    function createToken(string memory tokenURI) public payable returns (uint) {\r\n       uint256 precio = 50000 * 1 ether;\r\n      require(token.balanceOf(msg.sender) >= precio  , \"insufficient balance\");\r\n      \r\n\t  \t require(token.transferFrom(msg.sender, address(this), precio));\r\n\r\n      _tokenIds.increment();\r\n      uint256 newTokenId = _tokenIds.current();\r\n\r\n      _mint(msg.sender, newTokenId);\r\n      _setTokenURI(newTokenId, tokenURI);\r\n\r\n      listMyNFT[msg.sender].push(newTokenId);\r\n      \r\n     \r\n      return newTokenId;\r\n    }\r\n\r\n    /* allows someone to resell a token they have purchased */\r\n    function createMarketItem(uint256 tokenId, uint256 price) public  {\r\n      require(ownerOf(tokenId) == msg.sender, \"Only item owner can perform this operation\");\r\n      require(price > 0, \"Price must be equal to listing price\");\r\n      \r\n      _transfer(msg.sender, address(this), tokenId);\r\n       _itemsMarket.increment();\r\n       idToMarketItem[tokenId] =  MarketItem(\r\n        tokenId,\r\n        msg.sender,\r\n        address(this),\r\n        price * 1 ether,\r\n        false\r\n      );\r\n      uint256[] storage List = listMyNFT[msg.sender];\r\n\r\n      for(uint i = 0; i <List.length; i++){\r\n        if(ownerOf(List[i]) == msg.sender){\r\n         List[i]  = i;\r\n        }else{\r\n            require(i < List.length);\r\n            List[i]= List[List.length-1];   \r\n            List.pop();\r\n        }\r\n      }\r\n       listMyNFT[msg.sender] = List;\r\n       \r\n       \r\n        emit MarketItemCreated(\r\n        tokenId,\r\n        msg.sender,\r\n        address(this),\r\n        price,\r\n        false\r\n      );\r\n    }\r\n\r\n    /* Creates the sale of a marketplace item */\r\n    /* Transfers ownership of the item, as well as funds between parties */\r\n    function createMarketSale(\r\n      uint256 tokenId\r\n      ) public  {\r\n      uint price = idToMarketItem[tokenId].price ;\r\n      address seller = idToMarketItem[tokenId].seller;\r\n      require(token.balanceOf(msg.sender) >= price , \"Please submit the asking price in order to complete the purchase\");\r\n      require(idToMarketItem[tokenId].seller != msg.sender);\r\n      token.transfer(seller, price);\r\n      _transfer(address(this), msg.sender, tokenId);\r\n      idToMarketItem[tokenId].owner = msg.sender;\r\n      idToMarketItem[tokenId].sold = true;\r\n      idToMarketItem[tokenId].seller =address(0);\r\n      _itemsSold.increment();\r\n\r\n     //------------------Remover el nft de la lista, agregarlo al comprador --------------\r\n\r\n      uint256[] storage List = listMyNFT[seller];\r\n\r\n      for(uint i = 0; i <List.length; i++){\r\n        if(ownerOf(List[i]) == seller){\r\n         List[i]  = i;\r\n        }else{\r\n            require(i < List.length);\r\n            List[i]= List[List.length-1];   \r\n            List.pop();\r\n        }\r\n      }\r\n       listMyNFT[seller] = List;\r\n       listMyNFT[msg.sender].push(tokenId);\r\n       _itemsSold.current();\r\n      emit MarketItemSold (\r\n       tokenId,\r\n       seller,\r\n       owner,\r\n       price\r\n    );\r\n \r\n      \r\n    }\r\n    /*  Return Todos los Nft que posee el dueo */\r\n     function allMyNFT() public view returns (uint256[] memory) {\r\n       uint256[] memory nft = new uint256[](listMyNFT[msg.sender].length);\r\n       nft = listMyNFT[msg.sender];\r\n    \r\n        return nft;\r\n\r\n     }\r\n    /* Returns all unsold market items */\r\n    function fetchMarketItems() public view returns (MarketItem[] memory) {\r\n      \r\n      uint itemCount = _itemsMarket.current() - _itemsSold.current();\r\n      uint currentIndex = 0;\r\n\r\n      MarketItem[] memory items = new MarketItem[](itemCount);\r\n      for (uint i = 0; i < itemCount; i++) {\r\n        if (idToMarketItem[i+1].owner == address(this)) {\r\n          uint currentId = i+1 ;\r\n          MarketItem storage currentItem = idToMarketItem[currentId];\r\n          items[currentIndex] = currentItem;\r\n          currentIndex += 1;\r\n        }\r\n      }\r\n      return items;\r\n    }\r\n\r\n    /* Returns only items that a user has purchased */\r\n    function fetchMyNFTs() public view returns (MarketItem[] memory) {\r\n      uint totalItemCount = _tokenIds.current();\r\n      uint itemCount = 0;\r\n      uint currentIndex = 0;\r\n\r\n      for (uint i = 0; i < totalItemCount; i++) {\r\n        if (idToMarketItem[i + 1].owner == msg.sender) {\r\n          itemCount += 1;\r\n        }\r\n      }\r\n\r\n      MarketItem[] memory items = new MarketItem[](itemCount);\r\n      for (uint i = 0; i < totalItemCount; i++) {\r\n        if (idToMarketItem[i + 1].owner == msg.sender) {\r\n          uint currentId = i + 1;\r\n          MarketItem storage currentItem = idToMarketItem[currentId];\r\n          items[currentIndex] = currentItem;\r\n          currentIndex += 1;\r\n        }\r\n      }\r\n      return items;\r\n    }\r\n\r\n    /* Returns only items a user has listed */\r\n    function fetchItemsListed() public view returns (MarketItem[] memory) {\r\n      uint totalItemCount = _tokenIds.current();\r\n      uint itemCount = 0;\r\n      uint currentIndex = 0;\r\n\r\n      for (uint i = 0; i < totalItemCount; i++) {\r\n        if (idToMarketItem[i + 1].seller == msg.sender) {\r\n          itemCount += 1;\r\n        }\r\n      }\r\n\r\n      MarketItem[] memory items = new MarketItem[](itemCount);\r\n      for (uint i = 0; i < totalItemCount; i++) {\r\n        if (idToMarketItem[i + 1].seller == msg.sender) {\r\n          uint currentId = i + 1;\r\n          MarketItem storage currentItem = idToMarketItem[currentId];\r\n          items[currentIndex] = currentItem;\r\n          currentIndex += 1;\r\n        }\r\n      }\r\n      return items;\r\n    }\r\n}",
  "sourcePath": "C:\\Users\\diosy\\OneDrive\\Desktop\\truffle\\marketV2\\Plantilla DAPP\\src\\contracts\\market.sol",
  "compiler": {
    "name": "solc",
    "version": "0.8.13+commit.abaa5c0e.Emscripten.clang"
  },
  "schemaVersion": "3.4.2",
  "updatedAt": "2022-03-16T17:40:33.488Z",
  "networkType": "ethereum",
  "devdoc": {
    "kind": "dev",
    "methods": {
      "approve(address,uint256)": {
        "details": "See {IERC721-approve}."
      },
      "balanceOf(address)": {
        "details": "See {IERC721-balanceOf}."
      },
      "getApproved(uint256)": {
        "details": "See {IERC721-getApproved}."
      },
      "isApprovedForAll(address,address)": {
        "details": "See {IERC721-isApprovedForAll}."
      },
      "name()": {
        "details": "See {IERC721Metadata-name}."
      },
      "ownerOf(uint256)": {
        "details": "See {IERC721-ownerOf}."
      },
      "safeTransferFrom(address,address,uint256)": {
        "details": "See {IERC721-safeTransferFrom}."
      },
      "safeTransferFrom(address,address,uint256,bytes)": {
        "details": "See {IERC721-safeTransferFrom}."
      },
      "setApprovalForAll(address,bool)": {
        "details": "See {IERC721-setApprovalForAll}."
      },
      "supportsInterface(bytes4)": {
        "details": "See {IERC165-supportsInterface}."
      },
      "symbol()": {
        "details": "See {IERC721Metadata-symbol}."
      },
      "tokenURI(uint256)": {
        "details": "See {IERC721Metadata-tokenURI}."
      },
      "transferFrom(address,address,uint256)": {
        "details": "See {IERC721-transferFrom}."
      }
    },
    "version": 1
  },
  "userdoc": {
    "kind": "user",
    "methods": {},
    "version": 1
  }
}