{
  "contractName": "Token",
  "abi": [
    {
      "inputs": [],
      "stateMutability": "nonpayable",
      "type": "constructor"
    },
    {
      "anonymous": false,
      "inputs": [
        {
          "indexed": true,
          "internalType": "address",
          "name": "owner",
          "type": "address"
        },
        {
          "indexed": true,
          "internalType": "address",
          "name": "spender",
          "type": "address"
        },
        {
          "indexed": false,
          "internalType": "uint256",
          "name": "value",
          "type": "uint256"
        }
      ],
      "name": "Approval",
      "type": "event"
    },
    {
      "anonymous": false,
      "inputs": [
        {
          "indexed": true,
          "internalType": "address",
          "name": "from",
          "type": "address"
        },
        {
          "indexed": true,
          "internalType": "address",
          "name": "to",
          "type": "address"
        },
        {
          "indexed": false,
          "internalType": "uint256",
          "name": "value",
          "type": "uint256"
        }
      ],
      "name": "Transfer",
      "type": "event"
    },
    {
      "inputs": [
        {
          "internalType": "address",
          "name": "owner",
          "type": "address"
        },
        {
          "internalType": "address",
          "name": "spender",
          "type": "address"
        }
      ],
      "name": "allowance",
      "outputs": [
        {
          "internalType": "uint256",
          "name": "",
          "type": "uint256"
        }
      ],
      "stateMutability": "view",
      "type": "function",
      "constant": true
    },
    {
      "inputs": [
        {
          "internalType": "address",
          "name": "spender",
          "type": "address"
        },
        {
          "internalType": "uint256",
          "name": "amount",
          "type": "uint256"
        }
      ],
      "name": "approve",
      "outputs": [
        {
          "internalType": "bool",
          "name": "",
          "type": "bool"
        }
      ],
      "stateMutability": "nonpayable",
      "type": "function"
    },
    {
      "inputs": [
        {
          "internalType": "address",
          "name": "account",
          "type": "address"
        }
      ],
      "name": "balanceOf",
      "outputs": [
        {
          "internalType": "uint256",
          "name": "",
          "type": "uint256"
        }
      ],
      "stateMutability": "view",
      "type": "function",
      "constant": true
    },
    {
      "inputs": [],
      "name": "contrato",
      "outputs": [
        {
          "internalType": "address",
          "name": "",
          "type": "address"
        }
      ],
      "stateMutability": "view",
      "type": "function",
      "constant": true
    },
    {
      "inputs": [],
      "name": "decimals",
      "outputs": [
        {
          "internalType": "uint8",
          "name": "",
          "type": "uint8"
        }
      ],
      "stateMutability": "view",
      "type": "function",
      "constant": true
    },
    {
      "inputs": [
        {
          "internalType": "address",
          "name": "spender",
          "type": "address"
        },
        {
          "internalType": "uint256",
          "name": "subtractedValue",
          "type": "uint256"
        }
      ],
      "name": "decreaseAllowance",
      "outputs": [
        {
          "internalType": "bool",
          "name": "",
          "type": "bool"
        }
      ],
      "stateMutability": "nonpayable",
      "type": "function"
    },
    {
      "inputs": [
        {
          "internalType": "address",
          "name": "spender",
          "type": "address"
        },
        {
          "internalType": "uint256",
          "name": "addedValue",
          "type": "uint256"
        }
      ],
      "name": "increaseAllowance",
      "outputs": [
        {
          "internalType": "bool",
          "name": "",
          "type": "bool"
        }
      ],
      "stateMutability": "nonpayable",
      "type": "function"
    },
    {
      "inputs": [],
      "name": "name",
      "outputs": [
        {
          "internalType": "string",
          "name": "",
          "type": "string"
        }
      ],
      "stateMutability": "view",
      "type": "function",
      "constant": true
    },
    {
      "inputs": [],
      "name": "owner",
      "outputs": [
        {
          "internalType": "address",
          "name": "",
          "type": "address"
        }
      ],
      "stateMutability": "view",
      "type": "function",
      "constant": true
    },
    {
      "inputs": [],
      "name": "symbol",
      "outputs": [
        {
          "internalType": "string",
          "name": "",
          "type": "string"
        }
      ],
      "stateMutability": "view",
      "type": "function",
      "constant": true
    },
    {
      "inputs": [],
      "name": "totalSupply",
      "outputs": [
        {
          "internalType": "uint256",
          "name": "",
          "type": "uint256"
        }
      ],
      "stateMutability": "view",
      "type": "function",
      "constant": true
    },
    {
      "inputs": [
        {
          "internalType": "address",
          "name": "to",
          "type": "address"
        },
        {
          "internalType": "uint256",
          "name": "amount",
          "type": "uint256"
        }
      ],
      "name": "transfer",
      "outputs": [
        {
          "internalType": "bool",
          "name": "",
          "type": "bool"
        }
      ],
      "stateMutability": "nonpayable",
      "type": "function"
    },
    {
      "inputs": [
        {
          "internalType": "address",
          "name": "from",
          "type": "address"
        },
        {
          "internalType": "address",
          "name": "to",
          "type": "address"
        },
        {
          "internalType": "uint256",
          "name": "amount",
          "type": "uint256"
        }
      ],
      "name": "transferFrom",
      "outputs": [
        {
          "internalType": "bool",
          "name": "",
          "type": "bool"
        }
      ],
      "stateMutability": "nonpayable",
      "type": "function"
    },
    {
      "inputs": [
        {
          "internalType": "uint256",
          "name": "amount",
          "type": "uint256"
        }
      ],
      "name": "addSupplyToken",
      "outputs": [],
      "stateMutability": "nonpayable",
      "type": "function"
    }
  ],
  "bytecode": "0x60806040523480156200001157600080fd5b506040518060400160405280600481526020017f476f6c64000000000000000000000000000000000000000000000000000000008152506040518060400160405280600381526020017f474c440000000000000000000000000000000000000000000000000000000000815250816003908051906020019062000096929190620002da565b508060049080519060200190620000af929190620002da565b505050620000d0336b204fce5e3e250261100000006200015860201b60201c565b33600560006101000a81548173ffffffffffffffffffffffffffffffffffffffff021916908373ffffffffffffffffffffffffffffffffffffffff16021790555030600660006101000a81548173ffffffffffffffffffffffffffffffffffffffff021916908373ffffffffffffffffffffffffffffffffffffffff16021790555062000535565b600073ffffffffffffffffffffffffffffffffffffffff168273ffffffffffffffffffffffffffffffffffffffff1603620001ca576040517f08c379a0000000000000000000000000000000000000000000000000000000008152600401620001c190620003eb565b60405180910390fd5b620001de60008383620002d060201b60201c565b8060026000828254620001f2919062000446565b92505081905550806000808473ffffffffffffffffffffffffffffffffffffffff1673ffffffffffffffffffffffffffffffffffffffff168152602001908152602001600020600082825462000249919062000446565b925050819055508173ffffffffffffffffffffffffffffffffffffffff16600073ffffffffffffffffffffffffffffffffffffffff167fddf252ad1be2c89b69c2b068fc378daa952ba7f163c4a11628f55a4df523b3ef83604051620002b09190620004b4565b60405180910390a3620002cc60008383620002d560201b60201c565b5050565b505050565b505050565b828054620002e89062000500565b90600052602060002090601f0160209004810192826200030c576000855562000358565b82601f106200032757805160ff191683800117855562000358565b8280016001018555821562000358579182015b82811115620003575782518255916020019190600101906200033a565b5b5090506200036791906200036b565b5090565b5b80821115620003865760008160009055506001016200036c565b5090565b600082825260208201905092915050565b7f45524332303a206d696e7420746f20746865207a65726f206164647265737300600082015250565b6000620003d3601f836200038a565b9150620003e0826200039b565b602082019050919050565b600060208201905081810360008301526200040681620003c4565b9050919050565b6000819050919050565b7f4e487b7100000000000000000000000000000000000000000000000000000000600052601160045260246000fd5b600062000453826200040d565b915062000460836200040d565b9250827fffffffffffffffffffffffffffffffffffffffffffffffffffffffffffffffff0382111562000498576200049762000417565b5b828201905092915050565b620004ae816200040d565b82525050565b6000602082019050620004cb6000830184620004a3565b92915050565b7f4e487b7100000000000000000000000000000000000000000000000000000000600052602260045260246000fd5b600060028204905060018216806200051957607f821691505b6020821081036200052f576200052e620004d1565b5b50919050565b61178180620005456000396000f3fe608060405234801561001057600080fd5b50600436106100ea5760003560e01c806370a082311161008c578063a457c2d711610066578063a457c2d714610261578063a9059cbb14610291578063dd62ed3e146102c1578063e1a01e67146102f1576100ea565b806370a08231146101f55780638da5cb5b1461022557806395d89b4114610243576100ea565b806323b872dd116100c857806323b872dd1461015b578063313ce5671461018b57806339509351146101a95780635406d0e4146101d9576100ea565b806306fdde03146100ef578063095ea7b31461010d57806318160ddd1461013d575b600080fd5b6100f761030f565b6040516101049190610ee7565b60405180910390f35b61012760048036038101906101229190610fa2565b6103a1565b6040516101349190610ffd565b60405180910390f35b6101456103c4565b6040516101529190611027565b60405180910390f35b61017560048036038101906101709190611042565b6103ce565b6040516101829190610ffd565b60405180910390f35b6101936103fd565b6040516101a091906110b1565b60405180910390f35b6101c360048036038101906101be9190610fa2565b610406565b6040516101d09190610ffd565b60405180910390f35b6101f360048036038101906101ee91906110cc565b6104b0565b005b61020f600480360381019061020a91906110f9565b61054f565b60405161021c9190611027565b60405180910390f35b61022d610597565b60405161023a9190611135565b60405180910390f35b61024b6105bd565b6040516102589190610ee7565b60405180910390f35b61027b60048036038101906102769190610fa2565b61064f565b6040516102889190610ffd565b60405180910390f35b6102ab60048036038101906102a69190610fa2565b610739565b6040516102b89190610ffd565b60405180910390f35b6102db60048036038101906102d69190611150565b61075c565b6040516102e89190611027565b60405180910390f35b6102f96107e3565b6040516103069190611135565b60405180910390f35b60606003805461031e906111bf565b80601f016020809104026020016040519081016040528092919081815260200182805461034a906111bf565b80156103975780601f1061036c57610100808354040283529160200191610397565b820191906000526020600020905b81548152906001019060200180831161037a57829003601f168201915b5050505050905090565b6000806103ac610809565b90506103b9818585610811565b600191505092915050565b6000600254905090565b6000806103d9610809565b90506103e68582856109da565b6103f1858585610a66565b60019150509392505050565b60006012905090565b600080610411610809565b90506104a5818585600160008673ffffffffffffffffffffffffffffffffffffffff1673ffffffffffffffffffffffffffffffffffffffff16815260200190815260200160002060008973ffffffffffffffffffffffffffffffffffffffff1673ffffffffffffffffffffffffffffffffffffffff168152602001908152602001600020546104a0919061121f565b610811565b600191505092915050565b33600560009054906101000a900473ffffffffffffffffffffffffffffffffffffffff1673ffffffffffffffffffffffffffffffffffffffff168173ffffffffffffffffffffffffffffffffffffffff1614610541576040517f08c379a0000000000000000000000000000000000000000000000000000000008152600401610538906112e7565b60405180910390fd5b61054b3383610ce5565b5050565b60008060008373ffffffffffffffffffffffffffffffffffffffff1673ffffffffffffffffffffffffffffffffffffffff168152602001908152602001600020549050919050565b600560009054906101000a900473ffffffffffffffffffffffffffffffffffffffff1681565b6060600480546105cc906111bf565b80601f01602080910402602001604051908101604052809291908181526020018280546105f8906111bf565b80156106455780601f1061061a57610100808354040283529160200191610645565b820191906000526020600020905b81548152906001019060200180831161062857829003601f168201915b5050505050905090565b60008061065a610809565b90506000600160008373ffffffffffffffffffffffffffffffffffffffff1673ffffffffffffffffffffffffffffffffffffffff16815260200190815260200160002060008673ffffffffffffffffffffffffffffffffffffffff1673ffffffffffffffffffffffffffffffffffffffff16815260200190815260200160002054905083811015610720576040517f08c379a000000000000000000000000000000000000000000000000000000000815260040161071790611379565b60405180910390fd5b61072d8286868403610811565b60019250505092915050565b600080610744610809565b9050610751818585610a66565b600191505092915050565b6000600160008473ffffffffffffffffffffffffffffffffffffffff1673ffffffffffffffffffffffffffffffffffffffff16815260200190815260200160002060008373ffffffffffffffffffffffffffffffffffffffff1673ffffffffffffffffffffffffffffffffffffffff16815260200190815260200160002054905092915050565b600660009054906101000a900473ffffffffffffffffffffffffffffffffffffffff1681565b600033905090565b600073ffffffffffffffffffffffffffffffffffffffff168373ffffffffffffffffffffffffffffffffffffffff1603610880576040517f08c379a00000000000000000000000000000000000000000000000000000000081526004016108779061140b565b60405180910390fd5b600073ffffffffffffffffffffffffffffffffffffffff168273ffffffffffffffffffffffffffffffffffffffff16036108ef576040517f08c379a00000000000000000000000000000000000000000000000000000000081526004016108e69061149d565b60405180910390fd5b80600160008573ffffffffffffffffffffffffffffffffffffffff1673ffffffffffffffffffffffffffffffffffffffff16815260200190815260200160002060008473ffffffffffffffffffffffffffffffffffffffff1673ffffffffffffffffffffffffffffffffffffffff168152602001908152602001600020819055508173ffffffffffffffffffffffffffffffffffffffff168373ffffffffffffffffffffffffffffffffffffffff167f8c5be1e5ebec7d5bd14f71427d1e84f3dd0314c0f7b2291e5b200ac8c7c3b925836040516109cd9190611027565b60405180910390a3505050565b60006109e6848461075c565b90507fffffffffffffffffffffffffffffffffffffffffffffffffffffffffffffffff8114610a605781811015610a52576040517f08c379a0000000000000000000000000000000000000000000000000000000008152600401610a4990611509565b60405180910390fd5b610a5f8484848403610811565b5b50505050565b600073ffffffffffffffffffffffffffffffffffffffff168373ffffffffffffffffffffffffffffffffffffffff1603610ad5576040517f08c379a0000000000000000000000000000000000000000000000000000000008152600401610acc9061159b565b60405180910390fd5b600073ffffffffffffffffffffffffffffffffffffffff168273ffffffffffffffffffffffffffffffffffffffff1603610b44576040517f08c379a0000000000000000000000000000000000000000000000000000000008152600401610b3b9061162d565b60405180910390fd5b610b4f838383610e44565b60008060008573ffffffffffffffffffffffffffffffffffffffff1673ffffffffffffffffffffffffffffffffffffffff16815260200190815260200160002054905081811015610bd5576040517f08c379a0000000000000000000000000000000000000000000000000000000008152600401610bcc906116bf565b60405180910390fd5b8181036000808673ffffffffffffffffffffffffffffffffffffffff1673ffffffffffffffffffffffffffffffffffffffff16815260200190815260200160002081905550816000808573ffffffffffffffffffffffffffffffffffffffff1673ffffffffffffffffffffffffffffffffffffffff1681526020019081526020016000206000828254610c68919061121f565b925050819055508273ffffffffffffffffffffffffffffffffffffffff168473ffffffffffffffffffffffffffffffffffffffff167fddf252ad1be2c89b69c2b068fc378daa952ba7f163c4a11628f55a4df523b3ef84604051610ccc9190611027565b60405180910390a3610cdf848484610e49565b50505050565b600073ffffffffffffffffffffffffffffffffffffffff168273ffffffffffffffffffffffffffffffffffffffff1603610d54576040517f08c379a0000000000000000000000000000000000000000000000000000000008152600401610d4b9061172b565b60405180910390fd5b610d6060008383610e44565b8060026000828254610d72919061121f565b92505081905550806000808473ffffffffffffffffffffffffffffffffffffffff1673ffffffffffffffffffffffffffffffffffffffff1681526020019081526020016000206000828254610dc7919061121f565b925050819055508173ffffffffffffffffffffffffffffffffffffffff16600073ffffffffffffffffffffffffffffffffffffffff167fddf252ad1be2c89b69c2b068fc378daa952ba7f163c4a11628f55a4df523b3ef83604051610e2c9190611027565b60405180910390a3610e4060008383610e49565b5050565b505050565b505050565b600081519050919050565b600082825260208201905092915050565b60005b83811015610e88578082015181840152602081019050610e6d565b83811115610e97576000848401525b50505050565b6000601f19601f8301169050919050565b6000610eb982610e4e565b610ec38185610e59565b9350610ed3818560208601610e6a565b610edc81610e9d565b840191505092915050565b60006020820190508181036000830152610f018184610eae565b905092915050565b600080fd5b600073ffffffffffffffffffffffffffffffffffffffff82169050919050565b6000610f3982610f0e565b9050919050565b610f4981610f2e565b8114610f5457600080fd5b50565b600081359050610f6681610f40565b92915050565b6000819050919050565b610f7f81610f6c565b8114610f8a57600080fd5b50565b600081359050610f9c81610f76565b92915050565b60008060408385031215610fb957610fb8610f09565b5b6000610fc785828601610f57565b9250506020610fd885828601610f8d565b9150509250929050565b60008115159050919050565b610ff781610fe2565b82525050565b60006020820190506110126000830184610fee565b92915050565b61102181610f6c565b82525050565b600060208201905061103c6000830184611018565b92915050565b60008060006060848603121561105b5761105a610f09565b5b600061106986828701610f57565b935050602061107a86828701610f57565b925050604061108b86828701610f8d565b9150509250925092565b600060ff82169050919050565b6110ab81611095565b82525050565b60006020820190506110c660008301846110a2565b92915050565b6000602082840312156110e2576110e1610f09565b5b60006110f084828501610f8d565b91505092915050565b60006020828403121561110f5761110e610f09565b5b600061111d84828501610f57565b91505092915050565b61112f81610f2e565b82525050565b600060208201905061114a6000830184611126565b92915050565b6000806040838503121561116757611166610f09565b5b600061117585828601610f57565b925050602061118685828601610f57565b9150509250929050565b7f4e487b7100000000000000000000000000000000000000000000000000000000600052602260045260246000fd5b600060028204905060018216806111d757607f821691505b6020821081036111ea576111e9611190565b5b50919050565b7f4e487b7100000000000000000000000000000000000000000000000000000000600052601160045260246000fd5b600061122a82610f6c565b915061123583610f6c565b9250827fffffffffffffffffffffffffffffffffffffffffffffffffffffffffffffffff0382111561126a576112696111f0565b5b828201905092915050565b7f4e6f207469656e6573207065726d69736f73207061726120656a65637574617260008201527f20657374612066756e63696f6e2e000000000000000000000000000000000000602082015250565b60006112d1602e83610e59565b91506112dc82611275565b604082019050919050565b60006020820190508181036000830152611300816112c4565b9050919050565b7f45524332303a2064656372656173656420616c6c6f77616e63652062656c6f7760008201527f207a65726f000000000000000000000000000000000000000000000000000000602082015250565b6000611363602583610e59565b915061136e82611307565b604082019050919050565b6000602082019050818103600083015261139281611356565b9050919050565b7f45524332303a20617070726f76652066726f6d20746865207a65726f2061646460008201527f7265737300000000000000000000000000000000000000000000000000000000602082015250565b60006113f5602483610e59565b915061140082611399565b604082019050919050565b60006020820190508181036000830152611424816113e8565b9050919050565b7f45524332303a20617070726f766520746f20746865207a65726f20616464726560008201527f7373000000000000000000000000000000000000000000000000000000000000602082015250565b6000611487602283610e59565b91506114928261142b565b604082019050919050565b600060208201905081810360008301526114b68161147a565b9050919050565b7f45524332303a20696e73756666696369656e7420616c6c6f77616e6365000000600082015250565b60006114f3601d83610e59565b91506114fe826114bd565b602082019050919050565b60006020820190508181036000830152611522816114e6565b9050919050565b7f45524332303a207472616e736665722066726f6d20746865207a65726f20616460008201527f6472657373000000000000000000000000000000000000000000000000000000602082015250565b6000611585602583610e59565b915061159082611529565b604082019050919050565b600060208201905081810360008301526115b481611578565b9050919050565b7f45524332303a207472616e7366657220746f20746865207a65726f206164647260008201527f6573730000000000000000000000000000000000000000000000000000000000602082015250565b6000611617602383610e59565b9150611622826115bb565b604082019050919050565b600060208201905081810360008301526116468161160a565b9050919050565b7f45524332303a207472616e7366657220616d6f756e742065786365656473206260008201527f616c616e63650000000000000000000000000000000000000000000000000000602082015250565b60006116a9602683610e59565b91506116b48261164d565b604082019050919050565b600060208201905081810360008301526116d88161169c565b9050919050565b7f45524332303a206d696e7420746f20746865207a65726f206164647265737300600082015250565b6000611715601f83610e59565b9150611720826116df565b602082019050919050565b6000602082019050818103600083015261174481611708565b905091905056fea26469706673582212204b13272370b63af8a092a4faee5d8a0d306e823b61f02dbc34cef45496be265f64736f6c634300080d0033",
  "immutableReferences": {},
  "source": "// SPDX-License-Identifier: MIT\r\npragma solidity ^0.8.9;\r\n\r\nimport \"@openzeppelin/contracts/token/ERC20/ERC20.sol\";\r\n\r\ncontract Token is ERC20 {\r\n  // Owner del contrato \r\n    address public owner;\r\n\r\n\r\n    // Direccion del Smart Contract \r\n    address public contrato;\r\n\tconstructor() ERC20(\"Gold\", \"GLD\") {\r\n\r\n        _mint(msg.sender, 10000000000 * 10**18);\r\n        owner = msg.sender;\r\n        contrato = address(this);\r\n    }\r\n    function addSupplyToken(uint amount) external Unicamente(msg.sender) {\r\n        _mint(msg.sender, amount);\r\n    }\r\n    \r\n      // Modificador para hacer funciones solamente accesibles por el owner del contrato\r\n    modifier Unicamente(address _direccion) {\r\n        require (_direccion == owner, \"No tienes permisos para ejecutar esta funcion.\");\r\n        _;\r\n    }\r\n}\r\n\r\n\r\n\r\n",
  "sourcePath": "C:\\Users\\diosy\\OneDrive\\Desktop\\truffle\\marketV2\\Plantilla DAPP\\src\\contracts\\ERC20.sol",
  "compiler": {
    "name": "solc",
    "version": "0.8.13+commit.abaa5c0e.Emscripten.clang"
  },
  "schemaVersion": "3.4.2",
  "updatedAt": "2022-03-16T17:40:33.452Z",
  "networkType": "ethereum",
  "devdoc": {
    "kind": "dev",
    "methods": {
      "allowance(address,address)": {
        "details": "See {IERC20-allowance}."
      },
      "approve(address,uint256)": {
        "details": "See {IERC20-approve}. NOTE: If `amount` is the maximum `uint256`, the allowance is not updated on `transferFrom`. This is semantically equivalent to an infinite approval. Requirements: - `spender` cannot be the zero address."
      },
      "balanceOf(address)": {
        "details": "See {IERC20-balanceOf}."
      },
      "decimals()": {
        "details": "Returns the number of decimals used to get its user representation. For example, if `decimals` equals `2`, a balance of `505` tokens should be displayed to a user as `5.05` (`505 / 10 ** 2`). Tokens usually opt for a value of 18, imitating the relationship between Ether and Wei. This is the value {ERC20} uses, unless this function is overridden; NOTE: This information is only used for _display_ purposes: it in no way affects any of the arithmetic of the contract, including {IERC20-balanceOf} and {IERC20-transfer}."
      },
      "decreaseAllowance(address,uint256)": {
        "details": "Atomically decreases the allowance granted to `spender` by the caller. This is an alternative to {approve} that can be used as a mitigation for problems described in {IERC20-approve}. Emits an {Approval} event indicating the updated allowance. Requirements: - `spender` cannot be the zero address. - `spender` must have allowance for the caller of at least `subtractedValue`."
      },
      "increaseAllowance(address,uint256)": {
        "details": "Atomically increases the allowance granted to `spender` by the caller. This is an alternative to {approve} that can be used as a mitigation for problems described in {IERC20-approve}. Emits an {Approval} event indicating the updated allowance. Requirements: - `spender` cannot be the zero address."
      },
      "name()": {
        "details": "Returns the name of the token."
      },
      "symbol()": {
        "details": "Returns the symbol of the token, usually a shorter version of the name."
      },
      "totalSupply()": {
        "details": "See {IERC20-totalSupply}."
      },
      "transfer(address,uint256)": {
        "details": "See {IERC20-transfer}. Requirements: - `to` cannot be the zero address. - the caller must have a balance of at least `amount`."
      },
      "transferFrom(address,address,uint256)": {
        "details": "See {IERC20-transferFrom}. Emits an {Approval} event indicating the updated allowance. This is not required by the EIP. See the note at the beginning of {ERC20}. NOTE: Does not update the allowance if the current allowance is the maximum `uint256`. Requirements: - `from` and `to` cannot be the zero address. - `from` must have a balance of at least `amount`. - the caller must have allowance for ``from``'s tokens of at least `amount`."
      }
    },
    "version": 1
  },
  "userdoc": {
    "kind": "user",
    "methods": {},
    "version": 1
  }
}