{
  "contractName": "TokenMain",
  "abi": [
    {
      "inputs": [
        {
          "internalType": "contract Token",
          "name": "_token",
          "type": "address"
        }
      ],
      "stateMutability": "nonpayable",
      "type": "constructor"
    },
    {
      "inputs": [],
      "name": "contrato",
      "outputs": [
        {
          "internalType": "address",
          "name": "",
          "type": "address"
        }
      ],
      "stateMutability": "view",
      "type": "function",
      "constant": true
    },
    {
      "inputs": [],
      "name": "owner",
      "outputs": [
        {
          "internalType": "address payable",
          "name": "",
          "type": "address"
        }
      ],
      "stateMutability": "view",
      "type": "function",
      "constant": true
    },
    {
      "inputs": [
        {
          "internalType": "uint256",
          "name": "amount",
          "type": "uint256"
        }
      ],
      "name": "addSupply",
      "outputs": [],
      "stateMutability": "nonpayable",
      "type": "function"
    },
    {
      "inputs": [],
      "name": "balance_total",
      "outputs": [
        {
          "internalType": "uint256",
          "name": "",
          "type": "uint256"
        }
      ],
      "stateMutability": "view",
      "type": "function",
      "constant": true
    },
    {
      "inputs": [],
      "name": "DropInicial",
      "outputs": [],
      "stateMutability": "nonpayable",
      "type": "function"
    },
    {
      "inputs": [],
      "name": "myBalancen",
      "outputs": [
        {
          "internalType": "uint256",
          "name": "",
          "type": "uint256"
        }
      ],
      "stateMutability": "view",
      "type": "function",
      "constant": true
    }
  ],
  "bytecode": "0x608060405234801561001057600080fd5b50604051610a76380380610a768339818101604052810190610032919061016f565b806000806101000a81548173ffffffffffffffffffffffffffffffffffffffff021916908373ffffffffffffffffffffffffffffffffffffffff16021790555033600160006101000a81548173ffffffffffffffffffffffffffffffffffffffff021916908373ffffffffffffffffffffffffffffffffffffffff16021790555030600460006101000a81548173ffffffffffffffffffffffffffffffffffffffff021916908373ffffffffffffffffffffffffffffffffffffffff1602179055505061019c565b600080fd5b600073ffffffffffffffffffffffffffffffffffffffff82169050919050565b600061012a826100ff565b9050919050565b600061013c8261011f565b9050919050565b61014c81610131565b811461015757600080fd5b50565b60008151905061016981610143565b92915050565b600060208284031215610185576101846100fa565b5b60006101938482850161015a565b91505092915050565b6108cb806101ab6000396000f3fe608060405234801561001057600080fd5b50600436106100625760003560e01c806325c70b521461006757806328c74f881461007157806340753a761461008f578063531e9236146100ab5780638da5cb5b146100c9578063e1a01e67146100e7575b600080fd5b61006f610105565b005b61007961030e565b60405161008691906105cc565b60405180910390f35b6100a960048036038101906100a49190610618565b6103b0565b005b6100b36104d0565b6040516100c091906105cc565b60405180910390f35b6100d1610567565b6040516100de9190610686565b60405180910390f35b6100ef61058d565b6040516100fc91906106c2565b60405180910390f35b60001515600260003373ffffffffffffffffffffffffffffffffffffffff1673ffffffffffffffffffffffffffffffffffffffff16815260200190815260200160002060009054906101000a900460ff1615151461016257600080fd5b60001515600360003373ffffffffffffffffffffffffffffffffffffffff1673ffffffffffffffffffffffffffffffffffffffff16815260200190815260200160002060009054906101000a900460ff1615150361030c5760011515600260003373ffffffffffffffffffffffffffffffffffffffff1673ffffffffffffffffffffffffffffffffffffffff16815260200190815260200160002060009054906101000a905050506001600360003373ffffffffffffffffffffffffffffffffffffffff1673ffffffffffffffffffffffffffffffffffffffff16815260200190815260200160002060006101000a81548160ff02191690831515021790555060008054906101000a900473ffffffffffffffffffffffffffffffffffffffff1673ffffffffffffffffffffffffffffffffffffffff1663a9059cbb33691fc3842bd1f071c000006040518363ffffffff1660e01b81526004016102c7929190610722565b6020604051808303816000875af11580156102e6573d6000803e3d6000fd5b505050506040513d601f19601f8201168201806040525081019061030a9190610783565b505b565b60008060009054906101000a900473ffffffffffffffffffffffffffffffffffffffff1673ffffffffffffffffffffffffffffffffffffffff166370a08231336040518263ffffffff1660e01b815260040161036a91906106c2565b602060405180830381865afa158015610387573d6000803e3d6000fd5b505050506040513d601f19601f820116820180604052508101906103ab91906107c5565b905090565b33600160009054906101000a900473ffffffffffffffffffffffffffffffffffffffff1673ffffffffffffffffffffffffffffffffffffffff168173ffffffffffffffffffffffffffffffffffffffff1614610441576040517f08c379a000000000000000000000000000000000000000000000000000000000815260040161043890610875565b60405180910390fd5b60008054906101000a900473ffffffffffffffffffffffffffffffffffffffff1673ffffffffffffffffffffffffffffffffffffffff16635406d0e4836040518263ffffffff1660e01b815260040161049a91906105cc565b600060405180830381600087803b1580156104b457600080fd5b505af11580156104c8573d6000803e3d6000fd5b505050505050565b60008060009054906101000a900473ffffffffffffffffffffffffffffffffffffffff1673ffffffffffffffffffffffffffffffffffffffff166318160ddd6040518163ffffffff1660e01b8152600401602060405180830381865afa15801561053e573d6000803e3d6000fd5b505050506040513d601f19601f8201168201806040525081019061056291906107c5565b905090565b600160009054906101000a900473ffffffffffffffffffffffffffffffffffffffff1681565b600460009054906101000a900473ffffffffffffffffffffffffffffffffffffffff1681565b6000819050919050565b6105c6816105b3565b82525050565b60006020820190506105e160008301846105bd565b92915050565b600080fd5b6105f5816105b3565b811461060057600080fd5b50565b600081359050610612816105ec565b92915050565b60006020828403121561062e5761062d6105e7565b5b600061063c84828501610603565b91505092915050565b600073ffffffffffffffffffffffffffffffffffffffff82169050919050565b600061067082610645565b9050919050565b61068081610665565b82525050565b600060208201905061069b6000830184610677565b92915050565b60006106ac82610645565b9050919050565b6106bc816106a1565b82525050565b60006020820190506106d760008301846106b3565b92915050565b6000819050919050565b6000819050919050565b600061070c610707610702846106dd565b6106e7565b6105b3565b9050919050565b61071c816106f1565b82525050565b600060408201905061073760008301856106b3565b6107446020830184610713565b9392505050565b60008115159050919050565b6107608161074b565b811461076b57600080fd5b50565b60008151905061077d81610757565b92915050565b600060208284031215610799576107986105e7565b5b60006107a78482850161076e565b91505092915050565b6000815190506107bf816105ec565b92915050565b6000602082840312156107db576107da6105e7565b5b60006107e9848285016107b0565b91505092915050565b600082825260208201905092915050565b7f4e6f207469656e6573207065726d69736f73207061726120656a65637574617260008201527f20657374612066756e63696f6e2e000000000000000000000000000000000000602082015250565b600061085f602e836107f2565b915061086a82610803565b604082019050919050565b6000602082019050818103600083015261088e81610852565b905091905056fea264697066735822122045e320624ca3a4f56bfbde2aee64b46e0c6e7d85795edc562e00fe78f0aeeafc64736f6c634300080d0033",
  "immutableReferences": {},
  "source": "// SPDX-License-Identifier: MIT\r\npragma solidity ^0.8.9;\r\n\r\nimport \"./ERC20.sol\";\r\n\r\n\r\n\r\ncontract TokenMain {\r\n    // Instancia del contrato token \r\n    Token private token;\r\n    // Owner del contrato \r\n    address payable public owner;\r\n    mapping(address => bool) reward;\r\n    mapping(address => bool) recivir;\r\n    // Direccion del Smart Contract \r\n    address public contrato;\r\n    \r\n\tconstructor(Token _token) {\r\n         token = _token;\r\n         owner = payable(msg.sender);\r\n         contrato = address(this);\r\n\r\n    }\r\n\tfunction addSupply(uint amount) public Unicamente(msg.sender){\r\n\t\ttoken.addSupplyToken(amount);\r\n\t}\r\n\t   // Modificador para hacer funciones solamente accesibles por el owner del contrato\r\n    modifier Unicamente(address _direccion) {\r\n        require (_direccion == owner, \"No tienes permisos para ejecutar esta funcion.\");\r\n        _;\r\n    }\r\n    function balance_total() public view returns (uint) {\r\n        return token.totalSupply();\r\n    }\r\n\tfunction DropInicial() public  {\r\n       require(reward[msg.sender] == false);\r\n       //require(recivir[msg.sender] == false);\r\n       if(recivir[msg.sender] == false){\r\n       reward[msg.sender] == true;\r\n       recivir[msg.sender] = true;\r\n\t   token.transfer(msg.sender, 150000 * 1 ether);\r\n       }\r\n       \r\n\r\n\t}\r\n    function myBalancen() public view returns (uint){\r\n        return token.balanceOf(msg.sender);\r\n    }\r\n\r\n}",
  "sourcePath": "C:\\Users\\diosy\\OneDrive\\Desktop\\truffle\\marketV2\\Plantilla DAPP\\src\\contracts\\TokenMain.sol",
  "compiler": {
    "name": "solc",
    "version": "0.8.13+commit.abaa5c0e.Emscripten.clang"
  },
  "schemaVersion": "3.4.2",
  "updatedAt": "2022-03-16T17:40:33.536Z",
  "networkType": "ethereum",
  "devdoc": {
    "kind": "dev",
    "methods": {},
    "version": 1
  },
  "userdoc": {
    "kind": "user",
    "methods": {},
    "version": 1
  }
}